:020000040800F2
:1000000038150020C903000801300008033000083B
:10001000073000080B3000080F3000080000000017
:100020000000000000000000000000001330000885
:1000300015300008000000001730000833300008B9
:10004000E3030008E3030008E3030008E3030008F8
:10005000E3030008E3030008E3030008E3030008E8
:10006000E3030008E3030008E3030008E3030008D8
:10007000E3030008E3030008E3030008E3030008C8
:10008000E3030008E3030008E3030008E3030008B8
:10009000E3030008E3030008E3030008E3030008A8
:1000A000E3030008E3030008E3030008E303000898
:1000B000E3030008ED12000841120008E303000802
:1000C000E3030008E3030008E3030008E303000878
:1000D000E3030008DB1C0008E3030008E303000857
:1000E000E3030008E3030008E303000800F002F85C
:1000F00000F06AF80AA090E8000C82448344AAF158
:100100000107DA4501D100F05FF8AFF2090EBAE855
:100110000F0013F0010F18BFFB1A43F0010318473B
:1001200054DB000074DB00000A444FF0000C10F8B0
:10013000013B13F0070408BF10F8014B1D1108BF65
:1001400010F8015B641E05D010F8016B641E01F805
:10015000016BF9D113F0080F1EBF10F8014BAD1C55
:100160000C1B09D16D1E58BF01F801CBFAD505E073
:1001700014F8016B01F8016B6D1EF9D59142D6D3CD
:10018000704700000023002400250026103A28BFF5
:1001900078C1FBD8520728BF30C148BF0B607047F9
:1001A00066290DF0C683642909F0A68300207047F4
:1001B0001FB509F091FF0400002000210CF020F988
:1001C000E0601FBD10B510BD0AF0A0F81146FFF7A2
:1001D000EFFF02F0DFFD0AF0BEF803B4FFF7F2FF15
:1001E00003BC01F08FFC00000CB5002001900090D2
:1001F0006C48006840F480306A49086000BF694874
:10020000006800F4003000900198401C01900098B4
:1002100018B90198B0F5A06FF1D16248006800F4F8
:10022000003010B10120009001E000200090009803
:10023000012843D15C48006840F010005A4908602A
:100240000846006820F0030008600846006840F097
:1002500001000860534840685249486008464068B9
:1002600048600846406840F480604860084640683E
:1002700020F47C1048600846406840F488104860CC
:100280000846006840F08070086000BF454800687C
:1002900000F000700028F9D04248406820F00300C8
:1002A000404948600846406840F00200486000BF8E
:1002B0003C48406800F00C000828F9D10CBD10B58E
:1002C000FFF792FF10BD10B53648006840F00100FE
:1002D000344908600846406834490840314948605C
:1002E00008460068324908402E4908600846006800
:1002F00020F4802008600846406820F4FE00486032
:100300004FF41F008860FFF7DAFF4FF000602949C3
:10031000086010BD10B5002100200022214B5B6851
:1003200003F00C0121B1042906D0082928D107E0E7
:10033000214B224C236027E01F4B204C236023E0FD
:10034000184B5B6803F47010164B5B6803F4803243
:10035000022303EB904022B9194B4343174C23600F
:100360000DE0104B5B6803F4003323B1144B43439F
:10037000124C236003E0104B4343104C236003E016
:100380000D4B0E4C236000BF00BF064B5B68C3F3F0
:1003900003130C4CE15C094B1B68CB40074C2360FA
:1003A00010BD000000100240002002400000FFF8D5
:1003B000FFFFF6FE08ED00E000127A0000000020CA
:1003C00000093D0004000020094880470948004713
:1003D000FEE7FEE7FEE7FEE7FEE7FEE7FEE7FEE7F5
:1003E000FEE7FEE704480549054A064B7047000052
:1003F000C7020008ED000008380F00203815002063
:10040000381100203811002010B504464FF0E020CC
:10041000006920F004004FF0E0210861E11704EBCF
:100420005171C1F3C7011A4A11701046007800EBF0
:100430004001C1EBC0104FF6FF7101EAC000154941
:10044000088015A009F024FA10BD70B5044602F02A
:10045000F6FD054600BF02F0F2FD401B04EB44012F
:10046000C1EBC411B0EBC10FF5D370BD70B504463C
:1004700002F0E5FD054600BF02F0E1FD401BA04291
:10048000FAD370BD002100E0491C8142FCD37047C3
:10049000140000201600002044656C617920667508
:1004A0006E6374696F6E20696E697420737563631F
:1004B0006573732E2E2E0D0A0000000008B5012171
:1004C0000C2007F0E9F84FF40060ADF800001020B0
:1004D0008DF8030003208DF802006946704806F08D
:1004E0001FFE4FF400616E4806F0C7FE4FF49850AF
:1004F000ADF8000010208DF8030003208DF80200F5
:100500006946684806F00CFE4FF49851654806F0BD
:10051000B4FE08BD10B56448007800F0010028B1B1
:100520004FF400615E4806F0AAFE04E04FF400615B
:100530005B4806F0A2FE5C480078C0F3400028B19A
:100540004FF40071574806F09AFE04E04FF4007132
:10055000544806F092FE54480078C0F3800028B159
:100560004FF480714F4806F08AFE04E04FF480712A
:100570004C4806F082FE4C480078C0F3C00028B119
:100580004FF48051474806F07AFE04E04FF4805162
:10059000444806F072FE10BD10B5002043490870B3
:1005A00043480068012801D10420087041480078C0
:1005B00010B903203D4908703F48007E10B1022069
:1005C0003A4908703D48007810B101203749087059
:1005D0003948407E10B10620344908703848007808
:1005E000022802D1052031490870304800780728D8
:1005F00051D2DFE800F004080C2137484C000F20EE
:100600002949087047E003202749087043E027483C
:100610004088401C80B225494880032801DB002027
:1006200048802248408818B90F201F49087002E00E
:1006300000201D4908702EE01C484088401C80B2F4
:100640001A494880042801DB002048801748408868
:10065000022803DA0C201449087002E00320124932
:10066000087018E011484088401C80B20F4948804B
:10067000042801DB002048800C4881780120884054
:100680000949087007E00F200749087003E00020BF
:100690000549087000BF00BFFFF73CFF10BD000018
:1006A00000080140000C01401C0000201800002040
:1006B00014030020480B00207C090020CA01002000
:1006C0007003002010B52021F94806F0BCFD012878
:1006D00000D110BD0020FCE738B5044603230222F8
:1006E0006B21D020009400F041FD38BD10B50123EE
:1006F00007226B21D02000F06EFD10BD38B50446F6
:10070000022304221B21D020009400F02FFD38BDCD
:1007100038B50446022304221C21D020009400F0A6
:1007200025FD38BD10B50446234606226B21D02096
:1007300000F051FD10BD10B5DE4B01227521D02017
:1007400000F0A8FCDB48007810BD10B5FFF7F3FF00
:10075000682801D1012010BD0020FCE710B5044637
:10076000234605226A21D02000F035FD10BD10B5CA
:100770000446234601223721D02000F02CFD10BD75
:1007800010B5FFF7E2FF10B1012808D103E0CAA0BD
:1007900009F07EF803E0CEA009F07AF800BF00BFB0
:1007A00010BD10B580226B21D02000F0D5FC322086
:1007B000FFF74BFE00221921D02000F0CDFC0322D0
:1007C0006B21D02000F0C8FC02223721D02000F09D
:1007D000C3FC03221A21D02000F0BEFC0320FFF747
:1007E0008DFF10221C21D02000F0B6FC10BD1CB5DE
:1007F00004466B4606223B21D02000F04BFC9DF8BE
:1008000003009DF8021040EA012000B220809DF80C
:1008100001009DF8001040EA0120C04300B2608052
:100820009DF805009DF8041040EA012000B2A08068
:100830001CBD1CB504466B4606224321D02000F0A7
:1008400029FC9DF803009DF8021040EA012000B247
:1008500020809DF801009DF8001040EA0120C0436F
:1008600000B260809DF805009DF8041040EA012068
:1008700000B2A0801CBD38B50546002400BF13E0BF
:1008800035F81400000A8DF8000015F814008DF8F2
:100890000100062000EB4400C1B26B460222D020CA
:1008A00000F02CFC601CC4B2032CE9DB38BD38B569
:1008B0000546002400BF13E035F81400000A8DF847
:1008C000000015F814008DF80100132000EB44001F
:1008D000C1B26B460222D02000F010FC601CC4B2F2
:1008E000032CE9DB38BD70B504460D46164604F00E
:1008F0001F040EB144F020040DB144F04004224620
:100900006D21D02000F028FC70BD10B504462246B1
:100910006E21D02000F020FC10BD10B5654B0122E7
:100920006F21D02000F0B6FB6248007810BD10B5F2
:10093000604B02221321D02000F0ACFB5D484078D0
:100940005C49097840EA012000B210BD10B5594B4E
:1009500002221521D02000F09DFB564840785549D1
:10096000097840EA012000B210BD10B5514B0222B7
:100970001721D02000F08EFB4E4840784D49097871
:1009800040EA012000B210BD2DE9F05F83460F461A
:1009900091461C46002211464846FFF7A4FF204618
:1009A000FFF7B3FF002649E010257019B84201DDBA
:1009B000B81BC5B2C4F58070A84201DA6042C5B266
:1009C0000BEB060A53462A466F21D02000F096FB17
:1009D0000A9800B3002211464846FFF784FF2046DC
:1009E000FFF793FF414B2A466F21D02000F052FBC6
:1009F0004FF000080DE01AF808003C4911F8081003
:100A0000884202D00020BDE8F09F08F1010000F00C
:100A1000FF08A845EFDB701986B26019C4B2BE4268
:100A20000CDA1CB909F1010000F0FF09002211469F
:100A30004846FFF758FF2046FFF767FFBE42B3DB8B
:100A40000120E0E72DE9FE4F05460F46002456E061
:100A50002046611C8CB215F800A02046611C8CB2A7
:100A600015F800B02046611C8CB22E5C002E0FDD04
:100A700005EB0408002001215B465246CDE9001039
:100A800031464046FFF780FF0290A01984B231E062
:100A90002046611C8CB215F80090B9F1010F27D1E6
:100AA00032223821D02000F057FB0120029021E0B3
:100AB000000C0140B00300204D5055363035302039
:100AC0006E6F7420666F756E642E2E2E0D0A0000F8
:100AD0004D50553630353020636865636B20737533
:100AE00063636573732E2E2E0D0A000042040020EE
:100AF00000200290029810B90020BDE8FE8FBC4291
:100B0000A6DB0120F9E72DE9FC4104460D46164617
:100B10001F46DDF8208000203B4632462946CDE9BD
:100B200000802046FFF730FFBDE8FC8170B5044629
:100B30000D46002229462046FFF784FF70BD10B500
:100B4000044622463821D02000F006FB10BD10B527
:100B5000044622461921D02000F0FEFA10BD38B517
:100B60000446032302221A21D020009400F0FEFA4A
:100B700038BD38B50446032305221A21D02000943D
:100B800000F0F4FA38BD10B5044622467021D0209A
:100B900000F0E2FA10BD10B5044622467121D020C3
:100BA00000F0DAFA10BD10B50446234600221146C3
:100BB000D02000F010FB10BD10B50446200A8F496C
:100BC00008704C700B4602221321D02000F096FAD8
:100BD00010BD10B50446200A884908704C700B46B9
:100BE00002221521D02000F089FA10BD10B504466C
:100BF000200A824908704C700B4602221721D0202F
:100C000000F07CFA10BD10B5012302226A21D02029
:100C100000F0E1FA10BD10B5784B02227221D0200D
:100C200000F038FA754840787449097840EA0120A4
:100C300010BD10B5044622461F21D02000F08CFACA
:100C400010BD10B5044622462121D02000F084FAC0
:100C500010BD10B5044622462021D02000F07CFAB9
:100C600010BD10B5044622462221D02000F074FAAF
:100C700010BD2DE9F04781460E4690461C460022E5
:100C800011464046FFF72FFE2046FFF73EFE0025A7
:100C900025E01027E819B04201DD701BC7B2C4F58A
:100CA0008070B84201DA6042C7B209EB05033A46E8
:100CB0006F21D02000F022FAE81985B2E019C4B201
:100CC000B5420CDA1CB908F1010000F0FF0800225F
:100CD00011464046FFF707FE2046FFF716FEB542D5
:100CE000D7DBBDE8F08770B504460D4623462A469B
:100CF0007421D02000F0CEF970BD10B53A21D0207B
:100D000000F0A5F910BD10B50446234607226A215C
:100D1000D02000F060FA10BD10B50021D02000F006
:100D200096F9044604F0010010BD10B50021D02052
:100D300000F08DF9044604F03F04204610BD38B59C
:100D40000446E0B206231A4600210090D02000F0AD
:100D50000DFA38BD10B50121D02000F078F9044615
:100D600004F03F04204610BD38B50446E0B2062327
:100D70001A4601210090D02000F0F8F938BD10B5D6
:100D80000221D02000F063F9044604F03F0420461D
:100D900010BD38B50446E0B206231A460221009081
:100DA000D02000F0E3F938BD70B504460D46032CA1
:100DB00000DD70BD04EB44002530C1B22A46D020CE
:100DC00000F0CAF900BFF4E710B501231A466A2102
:100DD000D02000F000FA10BD10B5044623460622CC
:100DE0006A21D02000F0F7F910BD10B501230322CD
:100DF0006A21D02000F0EFF910BD0000B003002000
:100E000008B50121082006F047FCC020ADF800001D
:100E100010208DF8030003208DF802006946FE487B
:100E200006F07EF9FDA008F033FD08BD10B5FA48C4
:100E3000006820F07040F84908600846006840F0FB
:100E4000405008600120FC490860FC49C1F8980145
:100E50000420FFF70BFB0020F74908600420FFF790
:100E600005FB0020F549C1F8980110BD10B5EA480E
:100E7000006820F07040E84908600846006840F0CB
:100E8000405008600020EC49091F0860EB49C1F898
:100E90009C010420FFF7EAFA0120E749091F0860D6
:100EA000E649C1F89C010420FFF7E0FA10BD10B537
:100EB0000024D948006820F07040D74908600846EF
:100EC000006840F0004008600120DB490860FFF73F
:100ED000CDFA0120D949C1F89801FFF7C7FA0AE015
:100EE000601CC4B2322C03DDFFF7C0FF012010BD2F
:100EF0000120FFF7BBFAD048803800680028EFD106
:100F0000CD49091F086000BFF1E710B50020CA49AC
:100F1000091F0860C048006820F07040BE490860A2
:100F20000846006840F0405008600020C349C1F8FE
:100F30009C010120FFF79AFA0120BF49091F0860B0
:100F4000FFF794FA0020BD49C1F8980110BD10B513
:100F50000020B949091F0860AF48006820F07040C0
:100F6000AD4908600846006840F040500860012024
:100F7000B249C1F89C01FFF779FA0120AE49091F77
:100F80000860FFF773FA0020AC49C1F8980110BD62
:100F900070B50446A048006820F070409E49086083
:100FA0000846006840F0405008600020A249091F30
:100FB0000860002516E0E0099F4908606006040EFD
:100FC0000120FFF753FA01209C49C1F89801FFF76F
:100FD0004DFA00209849091F08600120FFF746FAE2
:100FE000681CC5B2082DE6DB70BD70B5054600244F
:100FF0008948006820F0704087490860084600680A
:1010000040F000400860002617E000208A49091FD0
:1010100008600120FFF72AFA01208849C1F89801E9
:101020006006040E84488038006808B1601CC4B2B1
:101030000120FFF71BFA701CC6B2082EE5DB15B1C4
:10104000FFF763FF01E0FFF782FF204670BD70B538
:1010500005460E460024FFF7E9FE2846FFF798FFF5
:10106000641CFFF724FF3046FFF792FF641CFFF774
:101070001EFFFFF7DBFE691CC8B2FFF789FF641C87
:10108000FFF715FF0020FFF7B0FF0446FFF7EEFE65
:10109000204670BD2DE9F04706460F461546984696
:1010A0000024FFF7C3FE3046FFF772FFFFF7FFFE95
:1010B0003846FFF76DFFFFF7FAFEFFF7B7FE711C2A
:1010C000C8B2FFF765FFFFF7F2FE00BF0FE0681E32
:1010D000A04204D00120FFF788FF814603E00020F2
:1010E000FFF783FF814608F80490601CC4B2AC424D
:1010F000EDDBFFF7BBFE2046BDE8F0872DE9F041B0
:1011000080460D4616461F460024FFF78FFE4046D8
:10111000FFF73EFFFFF7CBFE2846FFF739FFFFF74B
:10112000C6FE00BF06E0385DFFF732FFFFF7BFFEE7
:10113000601CC4B2B442F6DBFFF798FE0120BDE8A4
:10114000F08170B505460E46144631462846FFF735
:101150007EFF2070012070BD37B504460D4602ABFE
:10116000012229462046FFF7C9FF3EBD2DE9F8437D
:101170000746884614461D46089E6A46414638463C
:10118000FFF7DFFF28B3601CFF2101FA00F0C4F174
:1011900008012944491EFF220A41104300F0FF09BB
:1011A000C5F1080006FA00F0C6B2C4F10700064116
:1011B0009DF8000000EA090000909DF8000030430F
:1011C00000909DF8002041463846FFF7C5FFBDE876
:1011D000F8830020FBE7F8B506460F4614461D4687
:1011E0006A4639463046FFF7ACFF2DB10120A040DA
:1011F0009DF80010084305E00120A0409DF8001074
:1012000021EA0000C0B200909DF800203946304627
:10121000FFF7A2FFF8BD0000000C01404949432040
:1012200062757320696E6974207375636365737387
:101230002E2E2E0D0A0000009C81214200802142AA
:1012400010B50121C54807F084F900284DD0C448E5
:101250000088401CC2490880C2480088401CC1491F
:101260000880C1480088401CBF490880BF480088EA
:10127000401C80B2BD49088000EBC00101EB0010AA
:101280004FF47A71B1EB400F05DC0020B7490880BC
:101290000120B7490870B7480088401C80B2B549A2
:1012A000088000EB80004FF47A71B1EB800F05DC11
:1012B0000020B04908800120AF490870AF4800887D
:1012C000401C80B2AD49088000EB80004FF47A7179
:1012D000B1EB400F05DC0020A84908800120A84997
:1012E000087001219D4807F045F910BD2DE9F04F28
:1012F00085B00121A34807F02CF9002879D000F02F
:101300007EFEA1490860C8680BF07CFECDE90201B1
:101310009D4908680BF0FFFA804600229B4B0BF0BA
:1013200073F906460F46984948690BF06BFE324642
:101330003B46CDE900010BF055FB0446DDE90223F5
:101340000BF050FB82460BF071F88F4948609048D3
:101350000068401C8E49086008460068B0F5FA7FB6
:101360007DD1002008608B49D1F8B0000BF04AFE17
:10137000044622460B4688A008F08AFA8549D1F82F
:10138000AC000BF03FFE044622460B4689A008F055
:101390007FFA8049D1F8A8000BF034FE04462246BB
:1013A0000B468BA008F074FA90A008F071FA4FF089
:1013B0008040818E97A008F06BFA4FF08040018F3B
:1013C0009AA008F065FA4FF08040818F9DA008F048
:1013D0005FFAA2480188A2A008F05AFA83A008F098
:1013E00057FAA54800680BF00DFE044622460B464E
:1013F00000E038E0A1A008F04BFAA74800680BF025
:1014000001FE044622460B46A4A008F041FAAA4871
:1014100000680BF0F7FD044622460B46A7A008F033
:1014200037FA72A008F034FA574948680BF0EAFD21
:10143000044622460B46A8A008F02AFA07F076FCDC
:10144000049004980BF0DEFD044622460B4600E0B3
:1014500005E0A9A008F01CFA64A008F019FA01211F
:10146000484807F087F805B0BDE8F08F3EB505465F
:101470000C460121042006F01CF9384806F070F9EA
:10148000A0B2ADF80400681E80B2ADF800000020E4
:10149000ADF80600ADF802006946304806F034FAAF
:1014A00001212E4807F052F8012211462B4806F080
:1014B000A2FD0121294806F083FD95A008F0E8F976
:1014C0003EBD3EB505460C460121022006F0F1F86E
:1014D0002C4806F045F9A0B2ADF80400681E80B2B1
:1014E000ADF800000020ADF80600ADF80200694636
:1014F000244806F009FA0121224807F027F80122C2
:101500001146204806F077FD01211E4806F058FDDF
:1015100086A008F0BDF93EBD08B54FF4A06005F007
:1015200031FD1D208DF8000002208DF80100002003
:101530008DF8020001208DF80300684605F027FDB4
:101540001E208DF8000001208DF801008DF80200AA
:101550008DF80300684605F01AFD08BD000800403C
:101560002A000020380000203E0000203A00002021
:101570003000002040000020330000204200002006
:1015800034000020000400407C0900200000B0402E
:1015900044000020480B002020596177202D2D2D7C
:1015A0003E2025352E3266206465677265650D0A1A
:1015B000000000002050697463682D2D2D3E202509
:1015C000352E3266206465677265650D0A0000007D
:1015D00020526F6C6C202D2D2D3E2025352E32662D
:1015E000206465677265650D0A0000003D3D3D3D64
:1015F0003D3D3D3D3D3D3D3D3D3D3D3D3D3D3D3D1B
:101600003D3D3D3D3D3D3D3D3D3D3D3D3D3D3D3D0A
:101610000D0A0000204D6F746F72204D312050571D
:101620004D2D2D2D3E2025640D0A0000204D6F7498
:101630006F72204D322050574D2D2D2D3E202564A8
:101640000D0A0000204D6F746F72204D33205057EB
:101650004D2D2D2D3E2025640D0A00004000004038
:10166000204D6F746F72204D342050574D2D2D2D0D
:101670003E2025640D0A0000C8000020205072653D
:101680007373757265202D2D2D3E2025352E326603
:101690002050610D0A000000CC00002020416C7435
:1016A0006974756465202D2D2D3E2025352E3266FA
:1016B000204D0D0A00000000C40000202054656D7C
:1016C00070657261747572652D2D2D3E2025352E45
:1016D000326620430D0A00002042617474657279FD
:1016E00020566F6C746167652D2D2D3E2025332E9D
:1016F0003266760D0A00000020486F76657220542D
:101700006872752D2D2D3E2025332E32660D0A0070
:1017100054696D6572203420696E69742073756335
:10172000636573732E2E2E0D0A00000054696D65DB
:1017300072203320696E69742073756363657373F7
:101740002E2E2E0D0A00000030B540F2E734A042E4
:1017500000DB204640F2E734A14200DB214640F2A4
:10176000E734A24200DB224640F2E734A34200DB2A
:101770002346002800DC0020002900DC0021002A8C
:1017800000DC0022002B00DC00234FF08045A886FF
:101790002987AA87384D2B8030BD10B588B000242A
:1017A0000121042005F078FF0121084605F081FFA2
:1017B0000F20ADF81C0018208DF81F0002208DF8B6
:1017C0001E0007A92D4805F0ABFC4FF0804005F046
:1017D000C7FF2B4800682B49B0FBF1F0401E84B2D4
:1017E00040F2E730ADF81400ADF810400020ADF83D
:1017F0001600ADF8120004A94FF0804006F084F8FE
:10180000684606F0B6FB6020ADF800000120ADF898
:1018100002000020ADF80600ADF8080069464FF060
:10182000804006F0AEF869464FF0804006F0EBF8D5
:1018300069464FF0804006F033F969464FF080402A
:1018400006F079F90821C80606F0EAFC0821C80666
:1018500006F0EFFC0821C80606F0F8FC0821C806CF
:1018600006F0FDFC0121880706F0AAFB06A008F09F
:101870000FF808B010BD0000400000400008014013
:101880000000002000366E014D6F746F7220696E8B
:10189000697420737563636573732E2E2E0D0A00B1
:1018A00010B58B488B4948608B4848608BA007F087
:1018B000EFFF10BD8748006940F08000854908614E
:1018C00070478448C16801F0010008B101207047E9
:1018D00001F0040008B10220F9E701F0100008B19E
:1018E0000320F4E70020F2E770B5044600BFFFF7DD
:1018F000E8FF0546012D00D006E00120FEF7B6FD09
:10190000601E84B2002CF2D100BF04B9FF25284626
:1019100070BD70B50546002445F6FF70FFF7E4FF83
:101920000446C4B96B48006940F002006949086187
:1019300008464561006940F04000086145F6FF70C7
:10194000FFF7D2FF0446012C05D06248006920F061
:10195000020060490861204670BD70B505460E461C
:10196000FF20FFF7C1FF044694B95A48006940F0D0
:101970000100584908612E80FF20FFF7B5FF04469B
:10198000012C05D05348006920F00100514908613D
:10199000204670BD0146088870472DE9F041054694
:1019A0000E461746002407E036F814102846FFF7C5
:1019B000D4FFAD1C601C84B2BC42F5DBBDE8F081F5
:1019C00030B503460C461546002207E01846FFF7DF
:1019D000E1FF24F812009B1C501C82B2AA42F5DBE6
:1019E00030BD2DE9F05F80468A461746B8F1006F9A
:1019F00002D34248804501D3BDE8F09FFFF750FF76
:101A0000A8F1006B4FEA9B25CBF34809C9F5007498
:101A1000A74200DC3C464DE04FF0006101EB852021
:101A20008A143749FFF7CCFF00260BE009EB0600CC
:101A3000334931F810004FF6FF71884200D003E0BF
:101A4000701C86B2A642F1DB00BFA6421BDA4FF043
:101A5000006101EB8520FFF75CFF002608E03AF803
:101A6000160006EB0901264A22F81100701C86B206
:101A7000A642F4DB4FF0006101EB85208A14204977
:101A8000FFF78BFF04E0224651464046FFF785FFF3
:101A9000A74200D10FE06D1C4FF000090AEB440A89
:101AA000A044381B87B2B7F5007F02DD4FF4007405
:101AB00000E03C46B0E700BFFFF7FCFE00BF9BE73D
:101AC00013B50446012201A92046FFF78AFF1CBD79
:101AD0002301674500200240AB89EFCD496E6E655A
:101AE0007220464C41534820756E6C6F636B2073B7
:101AF0007563636573732E2E2E0D0A0000000108B6
:101B000062040020014600BF704700BF8F4A128860
:101B100002F04002002AF9D0C2B28C4B1B1D1A8081
:101B2000704708B525208DF8000000208DF80100D1
:101B30008DF8020001208DF80300684605F027FAB1
:101B400008BD2DE9F05F05460E4630010BF074FC30
:101B500081467F4905FB01F00BF06EFC8246494649
:101B60000BF0F0FA074638460BF0FEFB84B2204635
:101B70000BF062FC834639460BF0D4FD82464FF0F1
:101B800083410BF0A1FC81460BF0EEFB80464FF643
:101B9000FF7000EA041404EB080084B26D48806909
:101BA00040F004006B4988610846806940F4804039
:101BB00088616948006820F47F60674908600846CA
:101BC000006840F40B6008606248C06840F48040E0
:101BD0006049C8600846C06820F48040C8605B481F
:101BE00008300480001D008842F20C010843574968
:101BF0000C3108800846008840F480700880084650
:101C0000008840F020000880FFF78BFF0020534938
:101C1000088048807F208880514888600020514992
:101C2000088048807F2088804F48886029464FA0E0
:101C300007F02EFE314655A007F02AFEBDE8F09FC2
:101C4000028883881A40836899540288521C028053
:101C5000704710B5044621464048FFF7F1FF0122C6
:101C600040F22771394806F064FD10BD10B50446F6
:101C700021463A48FFF7E4FF012240F2277133483A
:101C800006F057FD204610BD01464A888B881A4051
:101C90008B68985C4A88521C4A80704701460888C5
:101CA0004A88801A8A8810407047018841807047AE
:101CB00070B504460D46002606E021782748FFF758
:101CC000BFFF641C701CC6B2AE42F6DB012240F2BC
:101CD00027711E4806F02DFD70BD10B540F227712A
:101CE0001A4806F00BFE90B11C48FFF7CDFF0446E2
:101CF0002146164806F07EFD1848FFF7CFFF18BBB7
:101D0000002240F22771114806F013FD1CE040F25A
:101D100025510E4806F0F2FDB0B140F225510B48B6
:101D200006F016FE094806F069FD1F4908700846CE
:101D300001780C48FFF784FF1B48007801F049FC4C
:101D40001948007801F0DEFD10BD000000380140A8
:101D500040420F00001002400408014064080020C7
:101D6000FC080020700800207C0800204D4355200E
:101D7000636C6F636B206672657175656E63793A2B
:101D800025644D487A200D0A000000005541525448
:101D9000203120626175642066726571756E6379A9
:101DA0003A2564200D0A00004C00002010B5E348DD
:101DB000806940F00800E1498861E148006820F04E
:101DC0000F00DF490860DD48806940F40070DB499E
:101DD00088610846C06840F40070C8600846C06862
:101DE00020F40070C8600846406820F44040486015
:101DF0000846406840F400404860D2480068D24934
:101E00000840D04908600846006808600846006835
:101E100020F480700860081D006820F00200091D91
:101E200008600846006820F46020086008460068E2
:101E300040F4602008600846006840F480100860A4
:101E40000846006820F4006008600846006840F416
:101E500000000860BB482830006820F47000B949D1
:101E6000283108600846006800200860B5480C303A
:101E7000006820F03800B3490C310860084600685B
:101E800040F038000860081F006820F4E010091FC7
:101E900008600846006840F4E0100860081F006809
:101EA00040F00100091F08600846006840F0080083
:101EB000086000BFA348001D006800F0080000286B
:101EC000F8D1A048001D006840F004009D49091D9C
:101ED000086000BF9B48001D006800F00400002857
:101EE000F8D19A489A4988609A4808619A48C86027
:101EF0000A46116990680BF025F995494861002060
:101F0000C86196A007F0C4FC10BD01468D48303072
:101F1000006820F01F008B4A3032106010460068C5
:101F2000084310608748001D006840F48000854A1F
:101F3000121D106000BF8348001F006800F00200FF
:101F40000028F8D07F484830006880B2704770B5EC
:101F500006460B460024002505E03046FFF7D5FF76
:101F60000444681CC5B29D42F7DBB4FBF3F080B2B9
:101F700070BD2DE9FE4F0024A14608E01020FFF7B8
:101F8000C4FF204484B209F1010000F0FF09B9F157
:101F9000140FF3DB142094FBF0F084B220460BF016
:101FA0004BFA82460BF02EF807464FF06632734B21
:101FB0000AF018FD05460AF039FA029002980BF073
:101FC00021F805466E4A6F4B0AF040FE07466E4AFE
:101FD0006E4B0AF019FB00226D4BCDE900010AF0AF
:101FE00057FA82460AF022FA02906A4902980BF0E8
:101FF0006BFA029002980BF09BF9BDE8FE8F00B5DA
:1020000005210820FFF7A3FF00BD2DE9FF5FFFF7C3
:10201000F6FF4F490860C8680AF0F4FF82468B4615
:102020004B4908680AF077FC804600225A4B0AF0B8
:10203000EBFA04460D46464948690AF0E3FF0646B6
:1020400022462B460AF0CEFC52465B46CDE9000103
:102050000AF0C8FCCDE902010AF0E8F93C49486001
:102060004E480078002832D048680AF0CBFF04467A
:102070004B4A4C4B0AF07AFC03D8012034490876CD
:1020800002E0002032490876314948680AF0BAFF78
:1020900004464FF03332444B0AF068FC13D82C4806
:1020A000C069401C2A49C8610846C06908282ADD61
:1020B00002203E49087040F2DC503D4908804880CB
:1020C0008880C8801FE000202149C8611BE02049AA
:1020D00048680AF097FF04464FF03332354B0AF058
:1020E00045FC0DD21A4948680AF08CFF04460022CC
:1020F000314B0AF075FD03D201201549087602E044
:10210000002013490876124948680AF07BFF04460C
:102110000022294B0AF02AFC0AD201200C494876F9
:102120000421074805F0ABF824A007F0B1FB02E05A
:10213000002007494876BDE8FF9F000000100240DC
:10214000000C014004240140FFFFF000CDCC7C4096
:102150007C090020A470FD3FD7A3504042617474F5
:10216000657220766F6C7461676520414420696EEA
:102170006974202E2E2E0D0A0000000066664A3F6C
:10218000E17A14AE47E1F63F22FDF675E09C713F1F
:1021900000003940000020410000B040AC030020A6
:1021A000703D0AD7A3700940333309407003002003
:1021B0002A01002033330D400000F03F42542070CC
:1021C0006F77657220636C6F7365207375636365E9
:1021D00073732E2E2E0D0A00FD49FE4A127841F827
:1021E0002200FC490978491C0A2291FBF2F302FB08
:1021F0001311F84A11707047F749F84A127841F8FC
:102200002200F6490978491C0A2291FBF2F302FBED
:102210001311F24A1170704710B50146012008E011
:10222000EF4A52F82030421EED4C44F82230421C56
:1022300010B20A28F4DBEA4A516210BD2DE9F041E0
:1022400006460C460027002506E056F825103846BD
:102250000AF004FF07466D1CA542F6DB20460BF092
:10226000A3F88046414638460AF06CFFBDE8F0818D
:1022700070B5002430E0FEF7D9FDEE20FEF788FEB1
:10228000FEF715FEA22101EB4401C8B2FEF780FE65
:10229000FEF70DFEFEF7EAFD0520FEF7E7F8FEF774
:1022A000C5FDEF20FEF774FE0120FEF7DFF8FEF714
:1022B000FEFD0120FEF799FE05460120FEF7D6F847
:1022C0000020FEF792FE0646FEF7D0FD46EA052006
:1022D000C44921F81400641C062CCCDB70BD10B579
:1022E000FEF7A4FDEE20FEF753FEFEF7E0FD1E20F4
:1022F000FEF74EFEFEF7DBFDFEF7B8FD10BD10B594
:102300000446FEF793FDEE20FEF742FEFEF7CFFDFA
:102310002046FEF73DFEFEF7CAFDFEF7A7FD10BD05
:1023200038B50024FEF782FDEE20FEF731FEFEF701
:10233000BEFD0020FEF72CFEFEF7B9FDFEF796FD70
:10234000FEF774FDEF20FEF723FEFEF7B0FD01203F
:10235000FEF74BFE8DF800000120FEF746FE8DF8DB
:1023600001000020FEF741FE8DF80200FEF77EFD21
:102370009DF8000001049DF8010001EB00209DF88C
:1023800002104418204638BD10B5FFF7A8FF64209E
:10239000FEF75BF8FFF76CFF10BD10B5FFF7C0FF4D
:1023A0009149086010BD2DE9FF5F00218F4800684A
:1023B0000AF08AFF30D18E480088322813DD8C481D
:1023C00000880AF0BFFA064632460B46894903C91F
:1023D0000AF01AF904460AF029F884490860012035
:1023E000854908700BE0854800680AF00BFE04463A
:1023F00080480CC820460AF04BF87E4A03C27C484D
:102400000088401C7A49088000207D490860084601
:10241000006804B0BDE8F09F744801687748006820
:102420000AF090FE01900AF0EDFD764A764BCDE978
:10243000020109F037F980460022744B0AF006FCCD
:1024400006460022724B0AF0CDFA04464FF0804255
:10245000704B0AF0C7FA824609F0E8FF6849086045
:102460006D480168664800680AF0F8FD6449086034
:1024700008460068CDE72DE9F04F8FB0FFF750FF19
:1024800082465848008958490968A1EB0020C517C1
:102490000446544840890021A0FB04B301FB0431E9
:1024A00000FB05114FF400020023584607F0CBF95A
:1024B0004FF4FA6C024612EB0C0641F10007494852
:1024C00041880020000440EA11400A044549C988B7
:1024D0000023A1FB04CB03FB04B301FB05334FEA4C
:1024E000DC1141EA4361511840EBE310CDE90C10D7
:1024F0003C4801884FF000004FEAC03040EA5140AC
:102500004FEAC132374989884FF00003A1FB04CB61
:1025100003FB04B301FB05334FEA1C2141EA0361CD
:10252000511840EB2320CDE90A104FF4FA61711ADB
:1025300077F1000076DAA4FB040105FB041104FB2B
:102540000511C00F40EA4100C917CDE908014FF459
:10255000FA62B11A67F10000A1FB018200FB0122BF
:1025600001FB002905210020A8FB012309FB013103
:1025700008FB001040104FEA3201CDE906104FF081
:1025800005014FF00002A8FB010309FB013108FB24
:1025900002114FEA900040EA81704FEAA101CDE9B3
:1025A0000401DDE90801361A67EB0107DDE90CC219
:1025B000DDE90610BCEB010162EB0002CDE90C1273
:1025C000DDE90AC2DDE90401BCEB000026E029E0F8
:1025D000540A0020F80000207C0A0020F9000020A6
:1025E000A40A0020480A0020AC000020B40000200B
:1025F000C0000020B8000020C2000020C800002059
:10260000FC000020EBE2361AC05BC83F0000F03F40
:102610001AE95041E17A843FB000002062EB0102E8
:10262000CDE90A024FEAEA72DDE90A01AAFB003CA1
:1026300002FB00C00AFB0100590D41EAC02341150D
:10264000DDE90C209A1A61EB0001CDE900214FF47D
:1026500000420023009807F0F6F8CDE902010AF0E5
:10266000BEFE6F490860304639460AF0B8FE6D4933
:1026700003900AF029FF8346FFF7AEFD0A216A485E
:10268000FFF7DCFD69490860FFF78DFE68490860C7
:102690000FB0BDE8F08F10B566480078012806D06D
:1026A000022813D0032820D004283FD12CE0582042
:1026B000FFF725FE6048006A6049086000F0BFFC33
:1026C0005F49086002205B49087033E000F0B7FC06
:1026D0005B490968401A59490968884204D9FFF7DB
:1026E0005CFE03205349087024E04820FFF707FEF2
:1026F0005148006A5149086000F0A1FC5049086047
:1027000004204C49087015E000F099FC4C49096818
:10271000401A4A490968884207D9FFF7ACFEFF20F2
:102720004849087001204349087003E001204149ED
:10273000087000BF00BF10BD10B53E4800780128EA
:1027400004D0022811D0042846D128E05820FFF7F1
:10275000D6FD3948006A3949086000F070FC3849F4
:1027600008600220334908703AE000F068FC344900
:102770000968401A3149096888420FD9FFF70DFEF0
:102780004820FFF7BCFD2C48006A2C49086000F087
:1027900056FC2B49086004202649087020E000F010
:1027A0004EFC27490968401A24490968884212D911
:1027B000FFF761FEFF20234908705820FFF79FFDB7
:1027C0001D48006A1D49086000F039FC1C4908607A
:1027D00002201849087003E002201649087000BF63
:1027E00000BF10BD70B50024002500F028FC044691
:1027F0000FE0FFF7A1FF00F022FC0546281B4FF475
:102800007A71B0FBF1F040F6C411884201D3002088
:1028100070BD0D4800780028EBD00120F8E70000DB
:10282000C80000200AD7233C540A0020C40000201E
:10283000CC000020A0000020D4000020A400002034
:10284000A8000020C3000020C200002008B501211C
:10285000082004F021FF41F2B000ADF80000102084
:102860008DF8030003208DF802006946FE4804F04D
:1028700057FC48F24000ADF8000004208DF803003A
:1028800003208DF802006946F74804F049FC4FF434
:102890008051F54804F0F3FC1021F34804F0EDFCFE
:1028A0002021F14804F0EBFCF0A006F0F1FF08BD98
:1028B00070B5044600251FE02021EB4804F0DFFC42
:1028C00004F0800020B18021E74804F0D6FC03E04A
:1028D0008021E54804F0D3FC6006040E2021E24884
:1028E00004F0CBFC4021E04804F0ADFC012801D10C
:1028F00044F00104681CC5B2082DDDDB2021DA4854
:1029000004F0BDFC204670BD70B505460C46102194
:10291000D54804F0B4FC2846FFF7CAFF2046FFF76D
:10292000C7FF1021D04804F0A8FC70BD70B5044664
:102930001021CD4804F0A3FC2046FFF7B9FF00208A
:10294000FFF7B6FF05461021C74804F096FC28465D
:1029500070BD2DE9F04107460D4616461021C248CC
:1029600004F08DFC00243846FFF7A2FF00BF04E00E
:10297000285DFFF79DFF601CC4B2B442F8DB002461
:102980001021B94804F079FCBDE8F0812DE9F0414F
:1029900007460D4616461021B34804F070FC384631
:1029A000FFF786FF002405E00020FFF781FF285590
:1029B000601CC4B2B442F7DB1021AB4804F05DFCEC
:1029C000BDE8F08110B54FF48051A74804F057FCE2
:1029D0008E212020FFF798FF0A20FDF747FD10BD4C
:1029E00010B54FF48051A04804F049FC8F212020FD
:1029F000FFF78AFF4FF480519B4804F03EFC022011
:102A0000FDF723FD10BD10B50720FFF78FFF00F085
:102A10007004204610BD10B570212720FFF774FF09
:102A200010BD10B50021E120FFF76EFF0021E2206C
:102A3000FFF76AFF10BD10B504464FF480518A4875
:102A400004F01DFC9048047021462520FFF75CFF30
:102A500010BD70B504460D464FF48051824804F015
:102A60000CFC1420FDF702FD4FF480517E4804F069
:102A700006FC2A462146A020FFF76BFF4FF4805149
:102A8000794804F0FAFB1420FDF7F0FC4FF4805174
:102A9000754804F0F4FB00BF4FF40041724804F0A5
:102AA000D2FB0028F8D10720FFF740FF00F07006A6
:102AB00031462720FFF728FF0021E120FFF724FF00
:102AC00070BD70B504460D464FF40041664804F0F1
:102AD000BAFB012801D1002070BD4FF4805162483B
:102AE00004F0CDFB2A4621466120FFF74FFF00216D
:102AF000E220FFF709FF70212720FFF705FF4FF4C1
:102B00008051594804F0B9FB06F013FE0120E3E7B9
:102B10001FB55EA103C9CDE902010024052202A967
:102B20003020FFF716FF052269461020FFF72EFF21
:102B300000BF06E01DF80400C22800D003E0601CBE
:102B4000C4B2052CF6DB00BF052C05D151A006F060
:102B50009FFE012004B010BD52A006F099FE002097
:102B6000F8E700B587B055A103C9CDE9050155A027
:102B70000068049054A103C9CDE9020154A0006883
:102B8000019054A000680090FFF760FEFFF7C0FFBF
:102B90004FF48051344804F072FB1021324804F0A5
:102BA0006CFB2021304804F06AFB4E203649087047
:102BB0005A215320FFF7A8FEA5215320FFF7A4FEBA
:102BC0000021E120FFF7A0FE0021E220FFF79CFE9C
:102BD00070212720FFF798FE01212220FFF794FEA5
:102BE00003212320FFF790FE4E212520FFF78CFEC6
:102BF00007213120FFF788FE052237493020FFF7F3
:102C0000A8FE052234492A20FFF7A3FE052205A9C4
:102C10003F20FFF79EFE062202A93A20FFF799FE09
:102C2000012201A93920FFF794FE032204A93E20C6
:102C3000FFF78FFE032269463B20FFF78AFE002143
:102C40003C20FFF761FE00213D20FFF75DFEFF21E4
:102C50002620FFF759FE00212420FFF755FE002112
:102C60002120FFF751FE39E0000801405350492070
:102C700062757320696E697420737563636573731D
:102C80002E2E2E0D0A00000005010020C2C2C2C275
:102C9000C2000000524620666F756E642E2E2E0D07
:102CA0000A000000524620636865636B2066616914
:102CB0006C65642E2E2E0D0A0000000012EC6FA130
:102CC00046000000F6375D00D521EB2C5A4000008D
:102CD0001F0000000BDF02000001002000213D204A
:102CE000FFF712FE07B000BD10B588B0044623A15F
:102CF00003C9CDE90601AFF234000068059021A1B7
:102D000003C9CDE9030121A000680290AFF23C00A5
:102D1000006801904FF480511D4804F0B0FA5A2128
:102D20005320FFF7F1FDA5215320FFF7EDFD2146CC
:102D30002520FFF7E9FDFF212620FFF7E5FD05220D
:102D400006A93F20FFF705FE062203A93A20FFF758
:102D500000FE012202A93920FFF7FBFD032205A98D
:102D60003E20FFF7F6FD032201A93B20FFF7F1FD0E
:102D700041F28830FDF77AFB08B010BD0A6D679C00
:102D8000460000004521EFAC5A500000E100000071
:102D9000000801400C2000F0B6F900F03DF984482D
:102DA00000684FF47A72B0FBF2F1B1F1807F00D38A
:102DB0001DE021F07F40401E4FF0E022506150178F
:102DC0000F22002807DA13071D0E7A4B00F00F04BC
:102DD000241F1D5503E013071C0E774B1C5400BF26
:102DE00000204FF0E02290610720106100BF4FF4F7
:102DF000E13172480078FEF7A4FE00F057F9FEF7C3
:102E00004FFD02F09AFFFDF759FBFEF7C6FCFEF7F7
:102E1000CDFFFDF7F5FFFDF7C4FCFFF7A2FEFFF7BE
:102E2000DFFD00F0F3F9FFF7F0F8FFF7ADFA01F07E
:102E300003FC4FF47A7161480078FEF717FB0A2310
:102E40001A4619461846FEF77FFC01205C490870B7
:102E5000FFF7C8FCABE05B4800880A282DDB0020A8
:102E60005849088000F0EBF857494968401A57491B
:102E7000486000F0E4F85449486003F07AFD01200E
:102E800053490870FFF758FC5248007850B101F0E0
:102E900063FD38B100204F49087001204E49087089
:102EA0004E49087005F08EFE06F0F5FA00F0C7F8FE
:102EB00045494968401A4A49486007214948FFF78F
:102EC00000FE4948007850B300204749087000F0E0
:102ED000B6F83D49C968401A3C49C86000F0AFF8EF
:102EE0003949C86000F048FA04F001F83448007825
:102EF000022801D103F0D5FF01F01AFF06F007F810
:102F000005F0CDFD39480078012801D001F017FB0C
:102F100000F095F82C49C968401A3149C860344816
:102F20000078E0B300203249087000F088F82649A4
:102F30008968401A2549886000F081F82249886034
:102F40002C480088401C80B22A49088000EBC00150
:102F500001EB001041F28831B1EB800F04DC00205E
:102F600024490880FFF751F82348007820B100F089
:102F700047FC0020204908701748007820B1002045
:102F80001549087002F0F0FE03F03AFFFDF704FB6C
:102F900000F055F80C498968401A114988601748B3
:102FA000007820B100201549087000F0E3FE52E7D8
:102FB0000000002018ED00E000E400E0180100200F
:102FC000700300203E000020CC0A0020F40A0020FC
:102FD00028000020CA010020B4020020480B002075
:102FE000E00A002006010020300000202601002019
:102FF000340000200E0100201D01002038010020B7
:10300000704700BFFEE700BFFEE700BFFEE700BF5E
:10301000FEE770477047704700B585B0684604F01A
:10302000CEFA1F490098B0FBF1F01E49086005B0C8
:1030300000BD1D480068401C1B490860704700BF68
:10304000194801684FF0E020826917480068814202
:10305000F6D11448006800EB4003C3EBC010C2EB8C
:10306000C000104B1B68B0FBF3F001EB4103C3EB56
:10307000C11300EBC300704730B50446FFF7DFFF14
:10308000054600BFFFF7DBFF401B04EB4401C1EB2B
:10309000C411B0EBC10FF5D330BD034800687047D1
:1030A00040420F00100100201401002010B5FEF76F
:1030B00033FAFEF736FD10BD0020A2490861C86052
:1030C0001420486100208861C8610846006840F00B
:1030D00001000860084640689B49084099494860DB
:1030E0000846006899490840964908600846006803
:1030F00020F4802008600846406820F4FE00486004
:1031000000208860704701468E48006840F001004A
:103110008C4A10601046006810601046006840F449
:103120008020106000BF8748006800F0020000287F
:10313000F9D084484268881E42EA8040814A506043
:103140001046406850601046006840F08070106083
:1031500000BF7C48006800F000700028F9D0794872
:10316000406840F00200774A50608806000E784AB6
:10317000107010460078704700B502460023FFF734
:103180009BFF7048006840F480306E49086000BFC3
:103190006C480068400C0028FAD04FF48060694900
:1031A0004860901EC2B20846406840EA82404860CB
:1031B0000846406840F4803048606648006840F047
:1031C0003200644908605F48006840F080705D49E3
:1031D000086000BF5B480068400E0028FAD05948DC
:1031E000406840F002005749486005E05548406893
:1031F000C0F3870303F00303022BF7D1901CC00632
:10320000000E534908700846007800BD10B5002430
:103210005DE04FF40061504804F031F84FF4007164
:103220004E4804F02AF84FF480714C4804F025F819
:103230004FF48051494804F020F84948FDF722F93D
:103240004FF40061444804F018F84FF4007143480B
:1032500004F015F84FF48071404804F00EF84FF474
:1032600080513E4804F009F83D48FDF70BF94FF452
:103270000061394804F001F84FF40071374803F059
:10328000FCFF4FF48071354803F0F9FF4FF4805193
:10329000324803F0F2FF3248FDF7F4F84FF40061D2
:1032A0002D4803F0EAFF4FF400712C4803F0E5FFCE
:1032B0004FF48071294803F0E0FF4FF48051274814
:1032C00003F0DDFF2648FDF7DDF8601CC4B2042CD6
:1032D0009FDB00242FE04FF400611F4803F0CFFF75
:1032E0004FF400711D4803F0CAFF4FF480711B4872
:1032F00003F0C5FF4FF48051184803F0C0FF184891
:10330000FDF7C0F84FF40061134803F0B6FF4FF427
:103310000071124803F0B1FF4FF480710F4803F0C1
:10332000ACFF4FF480510D4803F0A7FF0C48FDF7A8
:10333000A9F8601CC4B2032CCDDB0AA006F0A8FAE1
:1033400010BD0000001002400000FFF8FFFFF6FE75
:10335000180100200020024000080140000C01403C
:10336000A0BB0D0041726D65642073756363657366
:10337000732E2E2E0D0A00002DE9F047F648007836
:10338000022806D140F2DC50F449C8808880488089
:103390000880F248C088B0F57A7F03DA4FF47A707B
:1033A000EE49C880ED48C088B0F5FA6F03DD4FF4F0
:1033B000FA60EA49C880E9488088B0F57A7F03DA84
:1033C0004FF47A70E5498880E4488088B0F5FA6F58
:1033D00003DD4FF4FA60E1498880E0484088B0F5A9
:1033E0007A7F03DA4FF47A70DC494880DB48408802
:1033F000B0F5FA6F03DD4FF4FA60D8494880D7483A
:103400000088B0F57A7F03DA4FF47A70D3490880E8
:10341000D2480088B0F5FA6F03DD4FF4FA60CF4967
:103420000880CE49C988A1F57A7009F0BDFFCC4962
:103430008860CA498988A1F2DC5009F0B5FF81464D
:10344000C84AC94905F042FC044609F0DBFD0746BD
:10345000C64AC74B09F0C6FA054608F0E7FFC0495F
:10346000C860BE494988A1F2DC5009F09DFF814641
:10347000C04ABD4905F02AFC044609F0C3FD0746D1
:103480000022BD4B09F0AEFA054608F0CFFFB44963
:103490004860B2490988A1F2DC5009F085FF8146F5
:1034A000B44AB14905F012FC044609F0ABFD0746E9
:1034B0000022B14B09F096FA054608F0B7FFA8497B
:1034C0000860AE480078012802D0032828D112E015
:1034D00001F053FB48B1AA48007E30B90220A74949
:1034E0000870A520A749087004E00020A5490870CD
:1034F000A249087015E00020A249087001209649F1
:103500000870A14908700020A049086005F00EFC71
:103510009F49086000209F4908709849087000E0A2
:1035200000BF00BFBDE8F08710B59B4800790C28AC
:1035300041D008DC05282ED0062830D0072809D035
:10354000092844D13FE00D2839D010282BD0CD28B0
:103550003DD12CE0904840798F49897940EA01209B
:103560007E49C8808C48C0798B49097A40EA01209D
:103570007A4988808848407A8749897A40EA0120D8
:10358000764948808448C07A8349097B40EA012013
:10359000724908801BE001207849087017E0032079
:1035A0007649087013E001207C4908700FE0012083
:1035B0007B4908700BE0012005F062FA07E000206B
:1035C00005F05EFA03E002206349087000BF00BF07
:1035D00010BD10B5044670487249097844547148CA
:1035E0000078032834DA6F48007820B101280ED023
:1035F00002282CD11BE068486A490978405C2428DD
:1036000004D168480078401C664908701FE0624891
:1036100064490978405C4D2805D162480078401C17
:103620006049087002E000205E4908700FE05A48C7
:103630005C490978405C3C2805D15A480078401C18
:103640005849087002E000205649087000BF38E071
:1036500054480078032808D10020534908704E4888
:1036600050490978405C514908704E480078401C28
:103670004C490870084601784C480078801D81420A
:1036800015DB48480078401E4349085C46490978E4
:10369000884208D1FFF748FF012045490870FFF72D
:1036A000FCFC4449086000203E49087009E03D48A0
:1036B0000078401E3849085C3B49097848403A493F
:1036C000087010BD10B5044621463B48FEF7B8FA15
:1036D0003548007860403449087010BD10B5044684
:1036E00036490C70084601783348FEF7A9FA2E488F
:1036F00000783249097848402B490870200A2F4940
:103700000870084601782C48FEF79AFA2648007897
:103710002A490978484024490870200C2749087034
:10372000084601782448FEF78BFA1F4800782349A1
:10373000097848401C490870200E20490870084646
:1037400001781D48FEF77CFA174800781B49097874
:1037500048401549087010BD700300202A01002060
:10376000C80E002000008C420000FA43AA9F962257
:10377000DCA54C40000048420000444025010020E8
:103780007C090020AC030020780300208003002087
:103790007C03002030030020080B00201D010020C6
:1037A000CA0100202701002032010020280100204A
:1037B00026010020200100206408002033010020A1
:1037C00010B5044645490C70084601784448FEF798
:1037D00037FA44480078414909784840414908701F
:1037E000200A3E490870084601783D48FEF728FA4D
:1037F0003C4800783949097848403A49087010BD7A
:1038000070B52420FFF75EFF4D20FFF75BFF3E20E1
:10381000FFF758FF0020334908700E20FFF752FFD2
:103820001020FFF74FFF3049D1F8A8002F4909F0C9
:103830004BFE054609F07CFD04B22046FFF7C0FFB1
:103840002949D1F8AC00294909F03EFE054609F0A6
:103850006FFD04B22046FFF7B3FF2349D1F8B00053
:10386000224909F031FE054609F062FD04B2204606
:10387000FFF7A6FF1E48806880F000461D493046CD
:1038800009F022FE054609F053FD0446FFF726FF26
:1038900019494868174909F017FE054609F048FD1F
:1038A00004B22046FFF78CFF1148406980F00046C3
:1038B0001249304609F008FE054609F039FD04B208
:1038C0002046FFF77DFF07480078FFF7FBFE012247
:1038D00040F227710A4804F02CFF70BD340100202B
:1038E0006408002032010020480B00200000204125
:1038F000200C00200000C8427C09002000007A440F
:1039000000380140F749097807295AD2DFE801F069
:10391000040D171D592C49000021F34A1170AA28E3
:1039200002D10121EF4A11704BE0AF2803D10221EF
:10393000EC4A117002E00021EA4A117041E0EB49C3
:1039400008700321E74A11703BE0E949087005213E
:10395000E44A1170E649097801F25911E34A1278F4
:103960001144E14A11702CE0E2490978E04A1278EA
:1039700091420CDADF490A780978491CDD4B19704D
:10398000DD498854D84909780144D74A1170D9498A
:103990000978D74A1278914202D10621D14A117092
:1039A0000FE0D1490978814207D10121D34A117032
:1039B0000021D04A1170D24A11700021C94A1170F9
:1039C00000BF00BF704710B5002400BF05E0CD491F
:1039D000085DFFF797FF601CC4B2062CF7DB10BD33
:1039E000C9490A780978491CC74B1970C7498854D6
:1039F000C74909780144C64A1170704710B504469A
:103A0000C4F30720FFF7ECFFE0B2FFF7E9FF10BDBA
:103A100070B505460E46002404E0285DFFF7E0FF80
:103A2000601CC4B2B442F8DB70BD10B5B648017872
:103A3000B648FEF73DF90020B3490870B449087054
:103A400010BD70B504460020B1490870AA20FFF7E8
:103A5000C7FFAA20FFF7C4FF2046FFF7C1FF102CC5
:103A600006D0112C50D0122C7ED0142C4BD1E5E076
:103A70000C20FFF7B5FFA7490868A74909F024FD06
:103A8000064609F055FC05B22846FFF7B7FFA149E5
:103A90004868A14909F018FD064609F049FC05B23D
:103AA0002846FFF7ABFF9B4988689B4909F00CFD4E
:103AB000064609F03DFC05B22846FFF79FFF9749EF
:103AC0000868954909F000FD064609F031FC05B289
:103AD0002846FFF793FF914948688F4909F0F4FCA5
:103AE000064609F025FC05B22846FFF787FF8B49FB
:103AF0008868894909F0E8FC064609F019FC05B216
:103B00002846FFF77BFFE5E00C20FFF769FF8449BB
:103B10000868814909F0D8FC064609F009FC05B29D
:103B20002846FFF76BFF7E4948687B4909F0CCFCCB
:103B3000064609F0FDFB05B22846FFF75FFF78490E
:103B40008868754909F0C0FC064609F0F1FB05B22A
:103B50002846FFF753FF734908686F4909F0B4FC22
:103B6000064609F0E5FB00E01CE005B22846FFF739
:103B700045FF6C494868684909F0A6FC064609F00B
:103B8000D7FB05B22846FFF739FF664988686249C6
:103B900009F09AFC064609F0CBFB05B22846FFF770
:103BA0002DFF97E00C20FFF71BFF5F4908685A497B
:103BB00009F08AFC064609F0BBFB05B22846FFF770
:103BC0001DFF59494868544909F07EFC064609F032
:103BD000AFFB05B22846FFF711FF534988684E49ED
:103BE00009F072FC064609F0A3FB05B22846FFF770
:103BF00005FF4E490868484909F066FC064609F089
:103C000097FB05B22846FFF7F9FE48494868424944
:103C100009F05AFC064609F08BFB05B22846FFF76F
:103C2000EDFE424988683C4909F04EFC064609F021
:103C30007FFB05B22846FFF7E1FE4BE00C20FFF7C3
:103C4000CFFE3B490868344909F03EFC064609F0BE
:103C50006FFB05B22846FFF7D1FE354948682E496B
:103C600009F032FC064609F063FB05B22846FFF76F
:103C7000C5FE2F498868284909F026FC064609F048
:103C800057FB05B22846FFF7B9FE2A4908682249C2
:103C900009F01AFC064609F04BFB05B22846FFF76F
:103CA000ADFE244948681C4909F00EFC064609F09F
:103CB0003FFB05B22846FFF7A1FE1E49886816495A
:103CC00009F002FC064609F033FB05B22846FFF76F
:103CD00095FE00BF00BF0E480078FFF781FEFFF79A
:103CE000A4FE70BDC7010020C5010020C301002053
:103CF000C4010020C6010020280B0020380100204C
:103D000026010020BB010020C10100207B01002012
:103D1000C2010020540D00200000C842240D0020E4
:103D2000B40D0020840D0020140E0020E40D0020AE
:103D3000740E0020440E002010B504460020FE49F9
:103D40000870FE490870AA20FFF74AFEAA20FFF774
:103D500047FE2046FFF744FE0C20FFF741FE0C21F2
:103D6000F748FFF755FEF4480078FFF739FEFFF7F4
:103D70005CFE10BD10B5F348007812287ED006DC3A
:103D8000022809D0102818D0112815D178E013285E
:103D900075D01428F9D136E1E948007801280BD113
:103DA0001020FFF74EFE1120FFF74BFE1220FFF709
:103DB00048FE1420FFF745FE86E1E1494978E04AD4
:103DC000127841EA022108B209F0EEFA0446DE490F
:103DD00009F07AFBDD490860D949C978D84A927858
:103DE00041EA022108B209F0DFFA0446D64909F097
:103DF0006BFBD6494860D2494979D14A127941EAE8
:103E0000022108B209F0D0FA0446CF4909F05CFB60
:103E1000CE498860CA49C979C94A927941EA0221E2
:103E200008B209F0C1FA0446C74909F04DFBC84978
:103E30000860C349497AC24A127A41EA022108B2AB
:103E400009F0B2FA0446C04909F03EFBC049486097
:103E5000BB49C97ABA4A927A41EA022108B209F00A
:103E6000A3FA0446B84909F02FFBB949886010202D
:103E7000FFF762FF0120B749087025E161E0C1E06A
:103E8000AF494978AE4A127841EA022108B209F0F6
:103E90008BFA0446AC4909F017FBAF490860A84902
:103EA000C978A74A927841EA022108B209F07CFA5F
:103EB0000446A54909F008FBA7494860A04949798B
:103EC0009F4A127941EA022108B209F06DFA0446CC
:103ED0009D4909F0F9FAA04988609949C979984A39
:103EE000927941EA022108B209F05EFA0446964945
:103EF00009F0EAFA994908609149497A904A127A98
:103F000041EA022108B209F04FFA04468E4909F04D
:103F1000DBFA924948608A49C97A894A927A41EA29
:103F2000022108B209F040FA0446874909F0CCFAA8
:103F30008A4988601120FFF7FFFE0120854908703B
:103F4000C2E07F4949787E4A127841EA022108B2EC
:103F500009F02AFA04467C4909F0B6FA804908605B
:103F60007749C978764A927841EA022108B209F085
:103F70001BFA0446744909F0A7FA79494860704968
:103F800049796F4A127941EA022108B209F00CFA24
:103F900004466D4909F098FA714988606849C97901
:103FA000674A927941EA022108B209F0FDF9044614
:103FB000654909F089FA6B4908606149497A604AA4
:103FC000127A41EA022108B209F0EEF904465E498C
:103FD00009F07AFA634948605949C97A584A927A8D
:103FE00041EA022108B209F0DFF90446564909F016
:103FF0006BFA5C4988601220FFF79EFE012055494C
:10400000087061E060E04E4949784D4A127841EA13
:10401000022108B209F0C8F904464B4909F054FAE4
:10402000514908604649C978454A927841EA0221D7
:1040300008B209F0B9F90446434909F045FA4A497A
:1040400048603F4949793E4A127941EA022108B263
:1040500009F0AAF904463C4909F036FA4249886059
:104060003749C979364A927941EA022108B209F002
:104070009BF90446344909F027FA3C490860304965
:10408000497A2F4A127A41EA022108B209F08CF9E2
:1040900004462D4909F018FA344948602849C97A7C
:1040A000274A927A41EA022108B209F07DF90446D2
:1040B000254909F009FA2D4988601420FFF73CFED4
:1040C00001202449087000BF00BF10BD1CB5024686
:1040D000002004E0135C0DF80030431CD8B2884285
:1040E000F8DB002006E01DF800404B1E1B1AD454DC
:1040F000431CD8B28842F6DB1CBD10B51C49D1F870
:10410000A8001C4909F0E0F9044609F011F900B2D1
:10411000194988801649D1F8AC00164909F0D4F93C
:10412000044609F005F900B21349C8801049D1F8D6
:10413000B000104922E00000C2010020C1010020AF
:10414000280B0020C30100200AD7233C540D002077
:10415000240D0020B4020020B40D0020840D0020A6
:10416000140E0020E40D0020740E0020440E0020E8
:10417000480B00200000C8423C01002009F0A4F9CF
:10418000044609F0D5F800B2F7490881F749886874
:10419000F74909F099F9044609F0CAF8F249C860EC
:1041A000F349F448006809F08FF9044609F0C0F8B3
:1041B00000B2ED490882F048006809F0B9F8EA4910
:1041C0004861EA494869EA4909F07EF9044609F07C
:1041D000AFF800B2E44908830221E348001DFFF76D
:1041E00075FF0221E048801DFFF770FF0221DE48C5
:1041F0000830FFF76BFF0421DB480C30FFF766FF48
:104200000221D9481030FFF761FF0421D64814304D
:10421000FFF75CFF0221D4481830FFF757FF10BDAD
:104220002DE9F05F0020D5490870AA20FFF7D8FBE0
:10423000AA20FFF7D5FB0220FFF7D2FB1E20FFF7D5
:10424000CFFBCF49086DCF4909F03EF9054609F08B
:104250006FF804B22046FFF7D1FBC949486DC94940
:1042600009F032F9054609F063F804B22046FFF779
:10427000C5FBC349886DC34909F026F9054609F015
:1042800057F804B22046FFF7B9FBBD49886EBE4916
:1042900009F01AF9834608F0B5FE0646BB4ABC4B46
:1042A00008F0B2F980460022BA4B08F09BFB0446A6
:1042B00008F002FB0FFA80FA5046FFF79FFBB04967
:1042C000C86EB14909F000F9834608F09BFE8046AC
:1042D000AE4AAF4B08F098F906460022AD4B08F005
:1042E00081FB044608F0E8FA0FFA80FA5046FFF71F
:1042F00085FBA349086FA44909F0E6F8834608F056
:1043000081FE8046A14AA24B08F07EF906460022B3
:10431000A04B08F067FB044608F0CEFA0FFA80FACB
:104320005046FFF76BFB0020FFF768FB0020FFF70C
:1043300065FB0020FFF762FB91494869914909F04C
:10434000C3F8054608F0F4FF04B22046FFF756FB19
:104350008B4988698B4909F0B7F8054608F0E8FFF2
:1043600004B22046FFF74AFB8549C869854909F030
:10437000ABF8054608F0DCFF04B22046FFF73EFB31
:104380007F49086A804909F09FF8834608F03AFEA1
:1043900006467E4A7E4B08F037F9804600227D4B68
:1043A00008F020FB044608F087FA0FFA80FA50461E
:1043B000FFF724FB7249486A734909F085F8834680
:1043C00008F020FE8046714A714B08F01DF9064640
:1043D0000022704B08F006FB044608F06DFA0FFA55
:1043E00080FA5046FFF70AFB6549886A664909F07A
:1043F0006BF8834608F006FE8046644A644B08F07A
:1044000003F906460022634B08F0ECFA044608F074
:1044100053FA0FFA80FA5046FFF7F0FA574800783F
:10442000FFF7DEFAFFF701FBBDE8F09F70B508204B
:10443000594988700C20C870002008710021564826
:1044400041718171C1715548406880F0004648490A
:10445000304609F039F8054608F06AFF010A4E486F
:1044600001724E48406880F000464149304609F0EC
:104470002BF8054608F05CFFC1B24748417241493C
:104480004748006809F020F8054608F051FF010A86
:10449000414881723B494248006809F015F80546D9
:1044A00008F046FFC1B23C48C1723549486E3549F3
:1044B00009F00AF8054608F03BFF010A3648017387
:1044C0002F49486E2F4908F0FFFF054608F030FFDE
:1044D000C1B23148417300218173C17300202E495C
:1044E00081F8220000240AE02B4890F822002A4993
:1044F000095D0844284981F82200601CC4B2042CDC
:10450000F2DB00240AE0244890F82210001D005D30
:104510000844214981F82200601CC4B21E48C078BA
:10452000A042F0DC1C48C078001DC1B21A48FDF75B
:10453000BFFB012118482230FDF7BAFB70BD10B552
:10454000002418480078401C164908700846007876
:10455000022801DD0020087012480078002856D19A
:10456000FFF7CBFD002425E03C010020200C0020BB
:104570000000C842C4000020C8000020C201002082
:10458000480B002000007A44000034434AD8124D02
:10459000FB2109400000594058010020C80E0020AE
:1045A000CC000020C80100202048005D20490855AB
:1045B000601CC4B20A2CF7DB0A2406E01B48801CEE
:1045C000005D1B490855601CC4B2102CF6DB10249A
:1045D00006E01648001D005D15490855601CC4B270
:1045E000172CF6DB002012498875002408E01048DB
:1045F000807D0F49095D08440D498875601CC4B26F
:10460000162CF4DB17210A48FDF752FB0CE0094891
:104610000078012802D1FFF703FE05E00548007885
:10462000022801D1FFF702FF10BD00003C0100206D
:104630007B010020C801002010B50020FE49487011
:1046400001200870FD49FE4800F094FCFB49FC483D
:1046500000F06DFDF949FA4800F046FEF749F848C8
:1046600000F04EFFF549F64801F027F8F349F44809
:1046700001F038F910BD2DE9F04F8FB004460D461A
:1046800016461F46284608F0BDFCEE4AEE4BCDE923
:10469000000108F0A7F90022EC4BCDE9020107F078
:1046A000B3FFCDE9040107F0C1FE069006F038FF24
:1046B0000D90284608F0A6FCE24AE34BCDE9000144
:1046C00008F090F90022E14BCDE9020107F09CFFD0
:1046D000CDE9040107F0AAFE069007F0D3FC0C9088
:1046E000304608F08FFCD74AD74BCDE9000108F0DF
:1046F00079F90022D54BCDE9020107F085FFCDE91C
:10470000040107F093FE069006F00AFF804630464B
:1047100008F078FCCB4ACC4BCDE9000108F062F9F7
:104720000022CA4BCDE9020107F06EFFCDE904017A
:1047300007F07CFE069007F0A5FC8146384608F09D
:1047400061FCC04AC04BCDE9000108F04BF90022E2
:10475000BE4BCDE9020107F057FFCDE9040107F098
:1047600065FE069006F0DCFE8246384608F04AFCFC
:10477000B44AB54BCDE9000108F034F90022B34B3F
:10478000CDE9020107F040FFCDE9040107F04EFE3C
:10479000069007F077FC834650460D9908F094FE8A
:1047A0000B904146504608F08FFE0A9058460D99EE
:1047B00008F08AFE099051460C9808F085FE089092
:1047C00059460C9808F080FE07900A9820605946D8
:1047D000404608F079FE606089F00040A0604946DC
:1047E000089808F071FE0690099880F00040059046
:1047F000069908F033FCE0604946079808F064FE2B
:1048000006900B9908F02AFC206141460C9808F0AC
:104810005BFE606149460B9808F056FE06900799CA
:1048200008F01CFCA0614946099808F04DFE06906E
:10483000089880F000400590069908F00FFCE061B0
:1048400040460D9908F040FE20620FB0BDE8F08FA1
:1048500010B57F48808B784948807D48018C764828
:1048600081807B48818C7448C1807948008A724974
:1048700008817748818A704841817548018B6E486C
:1048800081817348406C6C4948617148816C6A4809
:1048900081616F48C16C6848C1616D48806B664931
:1048A00008626B48C16B644841626948016C6248A8
:1048B00081620246916B506908F0C6FF044600F021
:1048C000E5FB5D4908650A46D16B906908F0BCFFBD
:1048D000044600F0B8FC584948650A46116CD06996
:1048E00008F0B2FF044600F0BAFD534988650A4655
:1048F000516C106A08F0A8FF044600F08DFE4E4986
:1049000088660A46916C506A08F09EFF044600F0E3
:1049100060FF4949C8660A46D16C906A08F094FF66
:10492000044601F06BF8444908674A484068C1F8FA
:10493000AC0048480068C1F8A80046488068C1F843
:10494000B0000846D0F8B030D0F8AC20D0F8A810AD
:104950007430FFF790FE10BD2DE9F04100260024D1
:1049600000270025FEF799FB85B23B480088281AEE
:1049700087B23A48007898B901203849087000BFDA
:104980000CE00020364941F82400364941F8240063
:104990003549088028494870601CC4B2032CF0DBFC
:1049A0000A2F74DB30480088B0F5967F25DA0024A2
:1049B00019E0214A143252F82410294A52F82400EE
:1049C00008F04CFB264941F824001B4A203252F8DB
:1049D0002410244A52F8240008F040FB214941F8F1
:1049E0002400601CC4B2032CE3DB1F480088401C79
:1049F0001D4908801848058049E000243AE01A481B
:104A0000008808F019FD8046154951F824004146F8
:104A100008F098FB0849383141F824001248008812
:104A200008F00AFD80460F4951F82400414608F07D
:104A300089FB0149443119E0480B00200000F04196
:104A40000000C8424AD8124DFB2109400080664050
:104A5000B80900209C090020CE010020D0010020D0
:104A6000080C0020140C0020CC01002041F8240088
:104A7000601CC4B2032CC2DB6349086C634908F0B4
:104A8000E3FE614908640020614908700126304650
:104A9000BDE8F0812DE9F84F5B48801CFBF7A7FECD
:104AA00059480830FBF7C5FE4FF0000A33E056497D
:104AB000891C31F91A0008F077FC05464FF0665161
:104AC00008F002FD0446514908F0FEFC4E4914313D
:104AD00041F82A000C3931F91A0008F065FC4D49FB
:104AE000009008F0F1FC834608F08CFA06464A4A2A
:104AF0004A4B07F077FF04460022494B07F084FD3C
:104B0000804607F093FC4049203141F82A000AF121
:104B1000010000F0FF0ABAF1030FC8DB3A4A916BBB
:104B2000506908F091FE044600F0B0FA3649086575
:104B30000A46D16B906908F087FE044600F083FBBB
:104B4000314948650A46116CD06908F07DFE04467B
:104B500000F085FC2C498865086A00F05DFD2A4953
:104B60008866486A00F035FE2749C866886A00F002
:104B700045FF25490867BDE8F88F2DE9F047002477
:104B8000A046002509E02048801CFBF730FE1E48A7
:104B9000B0F906000444681CC5B2052DF3DB2046BD
:104BA00008F04AFC81461F4908F0CCFA07464FF04E
:104BB000665108F089FC0646144908F085FC124944
:104BC000C8610A46116CD06908F03EFE8046404636
:104BD00008F018FA0646144A144B08F001F80CD2F3
:104BE000404608F00FFA0646114A124B07F0BEFE87
:104BF00003D201200449087002E000200249087035
:104C000001480078BDE8F087480B00200AE81C4105
:104C1000D001002000007A3D4AD8124DFB21094006
:104C2000008066400000A040666666A66783234059
:104C30009A9999D99AB623402DE9F04705460C4632
:104C40002846A16808F040FC8246294608F03CFC52
:104C500080464FF0804108F075FA074628466168A3
:104C600008F032FC8146394608F0F8F9064621681A
:104C700008F0F4F920602846A16808F025FC0646F3
:104C8000616808F0EBF96060BDE8F0872DE9FF4F3F
:104C900087B014469946DDF850A05146079808F0B1
:104CA00013FC0546089908F00FFC069054F82900FB
:104CB000069908F0D3F944F82900B9F1000F28D17A
:104CC0005046069908F000FC0546616808F0C6F9F0
:104CD00060605146504608F0F7FB0190069908F0D5
:104CE000F3FB834608F08EF9074600228F4B07F04E
:104CF0008BFCCDE90401A06808F084F9CDE902013C
:104D0000DDE9042307F0C4FB054607F08FFBA06034
:104D10000BE0B9F1010F08D15046069908F0D4FB19
:104D20000546A16808F09AF9A0600BB0BDE8F08FC5
:104D30002DE9FF470020019002900390FEF77FF9D4
:104D400006467B48006848B179490968701A08F03E
:104D500073FB8046774908F0F5F900E0002007462C
:104D6000734806607448007808B9BDE8FF87734847
:104D7000407800B9F9E77248007878B17148016865
:104D8000002008F061FD80466F480168404608F049
:104D90005BFD6E4908600020694908706C48007826
:104DA000002854D06B4A1168644A106D08F04CFD1D
:104DB00062490865674A5168604A506D08F044FDD1
:104DC0005E494865634A91685C4A906D08F03CFD15
:104DD0005A498865002423E000205F4941F82400F7
:104DE000002519E005EB4503544A743202EB8302B7
:104DF00052F82400514A503252F8251008F064FB52
:104E00008046554850F82410404608F027F952498A
:104E100041F82400681CC5B2032DE3DB601CC4B25A
:104E2000032CD9DB4C48806880F000404A498860F8
:104E300088684A4908F012F980464348816840462C
:104E400008F002FD46498860002041490870454845
:104E500001683E48006808F037FB81464148016818
:104E6000484608F031FB8046039908F05BFC03904C
:104E700000242EE04FF00008002513E004EB44036B
:104E80002E4A743202EB830252F8250001AA52F82E
:104E9000251008F019FB8146414608F0DFF88046EE
:104EA000681CC5B2032DE9DB2F480168404608F0B5
:104EB0000BFB8246394608F007FB8146254850F82F
:104EC0002410484608F0CAF8224941F82400601C22
:104ED000C4B2032CCEDB1F48806880F000401D491F
:104EE000886019493846FFF7A7FE1E48006800236E
:104EF000154A3946009015480068FFF7C7FE1B4861
:104F000000681749009002230F4A88683946FFF766
:104F1000BDFE0D480068164988600B48406848612E
:104F200009488068086200BF1FE7000000000840D1
:104F3000F001002000247449C2000020480B00202A
:104F4000C3000020CC000020440C0020EC01002015
:104F5000280000205C0C0020E00100200AE81C4131
:104F6000500C0020D4010020DC010020D8010020DA
:104F7000200C00202DE9FE4F82460C4600200290B6
:104F8000814601902146504608F0DCF802900298D4
:104F900008F038F807463A460B46FE48FE4907F047
:104FA00033FB054607F042FA834607F06DF9814668
:104FB0004946484608F088FA8046F84806F0B0FAB4
:104FC00083464FF0804108F07FFA0746494608F0D3
:104FD0007BFA06464FF07E5108F040F80546414600
:104FE00008F03CF80190EE4804600021006808F0E9
:104FF00037FB49D24946484608F066FA054601990A
:1050000008F0A0F8E7490860084601684FF08040C2
:1050100008F05AFAE4490860E2480068E349086089
:105020004946484608F050FA07464FF07E5108F0CE
:105030000BFC06464FF0804108F046FA0546019900
:1050400008F080F8DA4908604946484608F03CFA1A
:105050000090D24806F064FA83464FF0804108F091
:1050600033FA8046494608F02FFA07464FF07E5142
:1050700008F058FB0646009907F0F0FF0546019935
:1050800008F060F8CB490860BDE8FE8F2DE9F047D5
:105090000446002500260021C148006808F0E0F918
:1050A00002D82046BDE8F087C2480168C2480068BF
:1050B00008F00AFA8046BE480168C048006808F057
:1050C00003FA8146214608F02DFB0746414608F0C9
:1050D000BBFB0546284605F071FD18B9284605F0CA
:1050E00063FD00B12546B1480168B348006808F087
:1050F000EBF98046AC480168B048006808F0E4F974
:105100008146A8480168284608F0DEF982464946EB
:1051100007F0A4FF0746414607F0A0FF0646A74850
:105120000068A5490860A54805603046BAE72DE942
:10513000FE4F82460C460020029081460190214697
:10514000504607F0FFFF0290029807F05BFF07460A
:105150003A460B468F48904907F056FA054607F045
:1051600065F9834607F090F881464946484608F0BD
:10517000ABF98046894806F0D3F983464FF0804169
:1051800008F0A2F90746494608F09EF906464FF096
:105190007E5107F063FF0546414607F05FFF01902F
:1051A000874804600021006808F05AFA49D249464D
:1051B000484608F089F90546019907F0C3FF81497F
:1051C0000860084601684FF0804008F07DF97E498C
:1051D00008607C4800687D4908604946484608F0F8
:1051E00073F907464FF07E5108F02EFB06464FF04C
:1051F000804108F069F90546019907F0A3FF744959
:1052000008604946484608F05FF90090634806F098
:1052100087F983464FF0804108F056F980464946A9
:1052200008F052F907464FF07E5108F07BFA064627
:10523000009907F013FF0546019907F083FF6549C0
:105240000860BDE8FE8F2DE9F047044600250026E2
:1052500000215B48006808F003F902D82046BDE849
:10526000F0875C4801685C48006808F02DF98046CA
:10527000574801685948006808F026F981462146D8
:1052800008F050FA0746414608F0DEFA054628467F
:1052900005F094FC18B9284605F086FC00B12546B7
:1052A0004A4801684C48006808F00EF980464648B4
:1052B00001684A48006808F007F9814641480168DA
:1052C000284608F001F98246494607F0C7FE07461E
:1052D000414607F0C3FE0646404800683E49086064
:1052E0003E4805603046BAE72DE9FE4F82460C463F
:1052F00000200290814601902146504607F022FF8F
:105300000290029807F07EFE07463A460B46214877
:10531000214907F079F9054607F088F8834606F039
:10532000B3FF81464946484608F0CEF880461B4800
:1053300006F0F6F883464FF0804108F0C5F80746BE
:10534000494608F0C1F806464FF07E5107F086FE48
:105350000546414607F082FE019021480460002185
:10536000006808F07DF978D24946484608F0ACF864
:105370000546019907F0E6FE1A49086008460168EB
:105380004FF0804008F0A0F8174908601548006801
:1053900016492DE04AD8124DFB210940DA0F493F4A
:1053A000F401002000020020040200200802002076
:1053B000F8010020FC010020100200200C02002057
:1053C00014020020200200202402002028020020D5
:1053D000180200201C020020300200202C020020B5
:1053E0003402002040020020440200204802002035
:1053F00008604946484608F067F807464FF07E5176
:1054000008F022FA06464FF0804108F05DF80546A4
:10541000019907F097FEFE4908604946484608F0A2
:1054200053F80090FB4806F07BF883464FF080412C
:1054300008F04AF88046494608F046F807464FF01B
:105440007E5108F06FF90646009907F007FE054601
:10545000019907F077FEF0490860BDE8FE8F2DE95D
:10546000F0470446002500260021EC48006807F0BC
:10547000F7FF02D82046BDE8F087E7480168E84812
:10548000006808F021F88046E1480168E5480068B6
:1054900008F01AF88146214608F044F907464146CB
:1054A00008F0D2F90546284605F088FB18B92846C9
:1054B00005F07AFB00B12546DB480168D848006852
:1054C00008F002F88046D9480168D648006807F01D
:1054D000FBFF8146D6480168284607F0F5FF824663
:1054E000494607F0BBFD0746414607F0B7FD0646B3
:1054F000CC480068CA490860CA4805603046BAE727
:105500002DE9FE4F82460C46002002908146019014
:105510002146504607F016FE0290029807F072FDF1
:1055200007463A460B46C348C34907F06DF805469F
:1055300006F07CFF834606F0A7FE814649464846B2
:1055400007F0C2FF8046B34805F0EAFF83464FF0FC
:10555000804107F0B9FF0746494607F0B5FF064608
:105560004FF07E5107F07AFD0546414607F076FD83
:105570000190B24804600021006808F071F849D237
:105580004946484607F0A0FF0546019907F0DAFDB5
:10559000AB490860084601684FF0804007F094FF6F
:1055A000A8490860A6480068A749086049464846D7
:1055B00007F08AFF07464FF07E5108F045F906468E
:1055C0004FF0804107F080FF0546019907F0BAFDD2
:1055D0009E4908604946484607F076FF00908D488E
:1055E00005F09EFF83464FF0804107F06DFF804637
:1055F000494607F069FF07464FF07E5108F092F8E0
:105600000646009907F02AFD0546019907F09AFD24
:105610008F490860BDE8FE8F2DE9F047044600255C
:10562000002600218548006807F01AFF02D82046AE
:10563000BDE8F087864801688648006807F044FFA7
:105640008046824801688448006807F03DFF814633
:10565000214608F067F80746414608F0F5F8054688
:10566000284605F0ABFA18B9284605F09DFA00B1B6
:105670002546754801687748006807F025FF804691
:10568000704801687448006807F01EFF81466C4846
:105690000168284607F018FF8246494607F0DEFCFD
:1056A0000746414607F0DAFC06466B480068694940
:1056B0000860694805603046BAE72DE9FE4F82462A
:1056C0000C4600200290814601902146504607F08A
:1056D00039FD0290029807F095FC07463A460B46C2
:1056E0005448554906F090FF054606F09FFE834654
:1056F00006F0CAFD81464946484607F0E5FE804669
:10570000444805F00DFF83464FF0804107F0DCFE72
:105710000746494607F0D8FE06464FF07E5107F08F
:105720009DFC0546414607F099FC01904B480460FA
:105730000021006807F094FF49D24946484607F027
:10574000C3FE0546019907F0FDFC4549086008467F
:1057500001684FF0804007F0B7FE424908604048BA
:105760000068414908604946484607F0ADFE0746D3
:105770004FF07E5108F068F806464FF0804107F080
:10578000A3FE0546019907F0DDFC3849086049464B
:10579000484607F099FE00901E4805F0C1FE83467A
:1057A0004FF0804107F090FE8046494607F08CFE9E
:1057B00007464FF07E5107F0B5FF0646009907F007
:1057C0004DFC0546019907F0BDFC29490860BDE87C
:1057D000FE8F2DE9F04704460025002600211F48D2
:1057E000006807F03DFE02D82046BDE8F08720485B
:1057F00001682048006807F067FE80461B48016882
:105800001D48006807F060FE8146214636E0000032
:1058100038020020DA0F493F3C0200203402002009
:10582000500200204C0200204802002044020020C8
:10583000400200204AD8124DFB21094054020020AA
:10584000600200206402002068020020580200204C
:105850005C020020700200206C0200207402002014
:1058600080020020840200208802002078020020AC
:105870007C020020900200208C02002007F052FFE2
:105880000746414607F0E0FF0546284605F096F931
:1058900018B9284605F088F900B125468048016806
:1058A0008048006807F010FE80467F4801687F4806
:1058B000006807F009FE81467D480168284607F028
:1058C00003FE8246494607F0C9FB0746414607F0FA
:1058D000C5FB064675480068724908607348056054
:1058E000304682E72DE9FE4F82460C4600200290AA
:1058F000814601902146504607F024FC0290029810
:1059000007F080FB07463A460B466A486A4906F0AC
:105910007BFE054606F08AFD834606F0B5FC81460F
:105920004946484607F0D0FD8046644805F0F8FD3A
:1059300083464FF0804107F0C7FD0746494607F010
:10594000C3FD06464FF07E5107F088FB05464146F1
:1059500007F084FB01905A4804600021006807F0BA
:105960007FFE49D24946484607F0AEFD05460199FB
:1059700007F0E8FB53490860084601684FF0804093
:1059800007F0A2FD504908604E4800684F49086082
:105990004946484607F098FD07464FF07E5107F00C
:1059A00053FF06464FF0804107F08EFD05460199F2
:1059B00007F0C8FB464908604946484607F084FDA1
:1059C00000903E4805F0ACFD83464FF0804107F063
:1059D0007BFD8046494607F077FD07464FF07E5134
:1059E00007F0A0FE0646009907F038FB054601992E
:1059F00007F0A8FB37490860BDE8FE8F2DE9F047A6
:105A000004460025002600212D48006807F028FDE7
:105A100002D82046BDE8F0872E4801682E4800686D
:105A200007F052FD80462A4801682C48006807F0BC
:105A30004BFD8146214607F075FE0746414607F0BB
:105A400003FF0546284605F0B9F818B9284605F0C1
:105A5000ABF800B125461D4801681F48006807F0F3
:105A600033FD8046184801681C48006807F02CFD8B
:105A7000814614480168284607F026FD82464946BB
:105A800007F0ECFA0746414607F0E8FA06461348E5
:105A9000006811490860114805603046BAE7000007
:105AA0008802002090020020840200208C02002046
:105AB000800200204AD8124DFB210940DA0F493FED
:105AC00094020020A0020020A4020020A8020020CE
:105AD000980200209C020020B0020020AC020020AE
