:020000040800F2
:10000000A0140020C90300088D3200088F320008B8
:1000100093320008973200089B320008000000006D
:100020000000000000000000000000009F320008F7
:10003000A132000800000000A3320008BF3200080F
:10004000E3030008E3030008E3030008E3030008F8
:10005000E3030008E3030008E3030008E3030008E8
:10006000E3030008E3030008E3030008E3030008D8
:10007000E3030008E3030008E3030008E3030008C8
:10008000E3030008E3030008E3030008E3030008B8
:10009000E3030008E3030008E3030008E3030008A8
:1000A000E3030008E3030008E3030008E303000898
:1000B000E3030008ED12000841120008E303000802
:1000C000E3030008E3030008E3030008E303000878
:1000D000E3030008EB1C0008E3030008E303000847
:1000E000E3030008E3030008E303000800F002F85C
:1000F00000F06AF80AA090E8000C82448344AAF158
:100100000107DA4501D100F05FF8AFF2090EBAE855
:100110000F0013F0010F18BFFB1A43F0010318473B
:10012000D4D10000F4D100000A444FF0000C10F8C4
:10013000013B13F0070408BF10F8014B1D1108BF65
:1001400010F8015B641E05D010F8016B641E01F805
:10015000016BF9D113F0080F1EBF10F8014BAD1C55
:100160000C1B09D16D1E58BF01F801CBFAD505E073
:1001700014F8016B01F8016B6D1EF9D59142D6D3CD
:10018000704700000023002400250026103A28BFF5
:1001900078C1FBD8520728BF30C148BF0B607047F9
:1001A00066290CF04A87642909F0AE840020704764
:1001B0001FB50AF049F80400002000210BF0E8FC0C
:1001C000E0601FBD10B510BD0AF058F91146FFF7E9
:1001D000EFFF02F025FF0AF076F903B4FFF7F2FF14
:1001E00003BC01F097FC00000CB5002001900090CA
:1001F0006C48006840F480306A49086000BF694874
:10020000006800F4003000900198401C01900098B4
:1002100018B90198B0F5A06FF1D16248006800F4F8
:10022000003010B10120009001E000200090009803
:10023000012843D15C48006840F010005A4908602A
:100240000846006820F0030008600846006840F097
:1002500001000860534840685249486008464068B9
:1002600048600846406840F480604860084640683E
:1002700020F47C1048600846406840F488104860CC
:100280000846006840F08070086000BF454800687C
:1002900000F000700028F9D04248406820F00300C8
:1002A000404948600846406840F00200486000BF8E
:1002B0003C48406800F00C000828F9D10CBD10B58E
:1002C000FFF792FF10BD10B53648006840F00100FE
:1002D000344908600846406834490840314948605C
:1002E00008460068324908402E4908600846006800
:1002F00020F4802008600846406820F4FE00486032
:100300004FF41F008860FFF7DAFF4FF000602949C3
:10031000086010BD10B5002100200022214B5B6851
:1003200003F00C0121B1042906D0082928D107E0E7
:10033000214B224C236027E01F4B204C236023E0FD
:10034000184B5B6803F47010164B5B6803F4803243
:10035000022303EB904022B9194B4343174C23600F
:100360000DE0104B5B6803F4003323B1144B43439F
:10037000124C236003E0104B4343104C236003E016
:100380000D4B0E4C236000BF00BF064B5B68C3F3F0
:1003900003130C4CE15C094B1B68CB40074C2360FA
:1003A00010BD000000100240002002400000FFF8D5
:1003B000FFFFF6FE08ED00E000127A0000000020CA
:1003C00000093D0004000020094880470948004713
:1003D000FEE7FEE7FEE7FEE7FEE7FEE7FEE7FEE7F5
:1003E000FEE7FEE704480549054A064B7047000052
:1003F000C7020008ED000008A00E0020A014002095
:10040000A0100020A010002010B504464FF0E020FE
:10041000006920F004004FF0E0210861E11704EBCF
:100420005171C1F3C7011A4A11701046007800EBF0
:100430004001C1EBC0104FF6FF7101EAC000154941
:10044000088015A009F02CFB10BD70B5044602F021
:100450003CFF054600BF02F038FF401B04EB44019F
:10046000C1EBC411B0EBC10FF5D370BD70B504463C
:1004700002F02BFF054600BF02F027FF401BA04201
:10048000FAD370BD002100E0491C8142FCD37047C3
:10049000140000201600002044656C617920667508
:1004A0006E6374696F6E20696E697420737563631F
:1004B0006573732E2E2E0D0A0000000008B5012171
:1004C0000C2007F015FA4FF40060ADF80000102082
:1004D0008DF8030003208DF802006946704806F08D
:1004E0004BFF4FF400616E4806F0F3FF4FF4985055
:1004F000ADF8000010208DF8030003208DF80200F5
:100500006946684806F038FF4FF49851654806F090
:10051000E0FF08BD10B56448007800F0010028B184
:100520004FF400615E4806F0D6FF04E04FF400612E
:100530005B4806F0CEFF5C480078C0F3400028B16D
:100540004FF40071574806F0C6FF04E04FF4007105
:10055000544806F0BEFF54480078C0F3800028B12C
:100560004FF480714F4806F0B6FF04E04FF48071FD
:100570004C4806F0AEFF4C480078C0F3C00028B1EC
:100580004FF48051474806F0A6FF04E04FF4805135
:10059000444806F09EFF10BD10B500204349087086
:1005A00043480068012801D10420087041480078C0
:1005B00010B903203D4908703F48007E10B1022069
:1005C0003A4908703D48007810B101203749087059
:1005D0003948407E10B10620344908703848007808
:1005E000022802D1052031490870304800780728D8
:1005F00051D2DFE800F004080C2137484C000F20EE
:100600002949087047E003202749087043E027483C
:100610004088401C80B225494880032801DB002027
:1006200048802248408818B90F201F49087002E00E
:1006300000201D4908702EE01C484088401C80B2F4
:100640001A494880042801DB002048801748408868
:10065000022803DA0C201449087002E00320124932
:10066000087018E011484088401C80B20F4948804B
:10067000042801DB002048800C4881780120884054
:100680000949087007E00F200749087003E00020BF
:100690000549087000BF00BFFFF73CFF10BD000018
:1006A00000080140000C01401C0000201800002040
:1006B000C8020020B00A0020300900207E0100207E
:1006C0002403002010B52021F94806F0E8FE012897
:1006D00000D110BD0020FCE738B5044603230222F8
:1006E0006B21D020009400F041FD38BD10B50123EE
:1006F00007226B21D02000F06EFD10BD38B50446F6
:10070000022304221B21D020009400F02FFD38BDCD
:1007100038B50446022304221C21D020009400F0A6
:1007200025FD38BD10B50446234606226B21D02096
:1007300000F051FD10BD10B5DE4B01227521D02017
:1007400000F0A8FCDB48007810BD10B5FFF7F3FF00
:10075000682801D1012010BD0020FCE710B5044637
:10076000234605226A21D02000F035FD10BD10B5CA
:100770000446234601223721D02000F02CFD10BD75
:1007800010B5FFF7E2FF10B1012808D103E0CAA0BD
:1007900009F086F903E0CEA009F082F900BF00BF9E
:1007A00010BD10B580226B21D02000F0D5FC322086
:1007B000FFF74BFE00221921D02000F0CDFC0322D0
:1007C0006B21D02000F0C8FC02223721D02000F09D
:1007D000C3FC03221A21D02000F0BEFC0320FFF747
:1007E0008DFF10221C21D02000F0B6FC10BD1CB5DE
:1007F00004466B4606223B21D02000F04BFC9DF8BE
:1008000003009DF8021040EA012000B220809DF80C
:1008100001009DF8001040EA0120C04300B2608052
:100820009DF805009DF8041040EA012000B2A08068
:100830001CBD1CB504466B4606224321D02000F0A7
:1008400029FC9DF803009DF8021040EA012000B247
:1008500020809DF801009DF8001040EA0120C0436F
:1008600000B260809DF805009DF8041040EA012068
:1008700000B2A0801CBD38B50546002400BF13E0BF
:1008800035F81400000A8DF8000015F814008DF8F2
:100890000100062000EB4400C1B26B460222D020CA
:1008A00000F02CFC601CC4B2032CE9DB38BD38B569
:1008B0000546002400BF13E035F81400000A8DF847
:1008C000000015F814008DF80100132000EB44001F
:1008D000C1B26B460222D02000F010FC601CC4B2F2
:1008E000032CE9DB38BD70B504460D46164604F00E
:1008F0001F040EB144F020040DB144F04004224620
:100900006D21D02000F028FC70BD10B504462246B1
:100910006E21D02000F020FC10BD10B5654B0122E7
:100920006F21D02000F0B6FB6248007810BD10B5F2
:10093000604B02221321D02000F0ACFB5D484078D0
:100940005C49097840EA012000B210BD10B5594B4E
:1009500002221521D02000F09DFB564840785549D1
:10096000097840EA012000B210BD10B5514B0222B7
:100970001721D02000F08EFB4E4840784D49097871
:1009800040EA012000B210BD2DE9F05F83460F461A
:1009900091461C46002211464846FFF7A4FF204618
:1009A000FFF7B3FF002649E010257019B84201DDBA
:1009B000B81BC5B2C4F58070A84201DA6042C5B266
:1009C0000BEB060A53462A466F21D02000F096FB17
:1009D0000A9800B3002211464846FFF784FF2046DC
:1009E000FFF793FF414B2A466F21D02000F052FBC6
:1009F0004FF000080DE01AF808003C4911F8081003
:100A0000884202D00020BDE8F09F08F1010000F00C
:100A1000FF08A845EFDB701986B26019C4B2BE4268
:100A20000CDA1CB909F1010000F0FF09002211469F
:100A30004846FFF758FF2046FFF767FFBE42B3DB8B
:100A40000120E0E72DE9FE4F05460F46002456E061
:100A50002046611C8CB215F800A02046611C8CB2A7
:100A600015F800B02046611C8CB22E5C002E0FDD04
:100A700005EB0408002001215B465246CDE9001039
:100A800031464046FFF780FF0290A01984B231E062
:100A90002046611C8CB215F80090B9F1010F27D1E6
:100AA00032223821D02000F057FB0120029021E0B3
:100AB000000C0140640300204D5055363035302085
:100AC0006E6F7420666F756E642E2E2E0D0A0000F8
:100AD0004D50553630353020636865636B20737533
:100AE00063636573732E2E2E0D0A0000F60300203B
:100AF00000200290029810B90020BDE8FE8FBC4291
:100B0000A6DB0120F9E72DE9FC4104460D46164617
:100B10001F46DDF8208000203B4632462946CDE9BD
:100B200000802046FFF730FFBDE8FC8170B5044629
:100B30000D46002229462046FFF784FF70BD10B500
:100B4000044622463821D02000F006FB10BD10B527
:100B5000044622461921D02000F0FEFA10BD38B517
:100B60000446032302221A21D020009400F0FEFA4A
:100B700038BD38B50446032305221A21D02000943D
:100B800000F0F4FA38BD10B5044622467021D0209A
:100B900000F0E2FA10BD10B5044622467121D020C3
:100BA00000F0DAFA10BD10B50446234600221146C3
:100BB000D02000F010FB10BD10B50446200A8F496C
:100BC00008704C700B4602221321D02000F096FAD8
:100BD00010BD10B50446200A884908704C700B46B9
:100BE00002221521D02000F089FA10BD10B504466C
:100BF000200A824908704C700B4602221721D0202F
:100C000000F07CFA10BD10B5012302226A21D02029
:100C100000F0E1FA10BD10B5784B02227221D0200D
:100C200000F038FA754840787449097840EA0120A4
:100C300010BD10B5044622461F21D02000F08CFACA
:100C400010BD10B5044622462121D02000F084FAC0
:100C500010BD10B5044622462021D02000F07CFAB9
:100C600010BD10B5044622462221D02000F074FAAF
:100C700010BD2DE9F04781460E4690461C460022E5
:100C800011464046FFF72FFE2046FFF73EFE0025A7
:100C900025E01027E819B04201DD701BC7B2C4F58A
:100CA0008070B84201DA6042C7B209EB05033A46E8
:100CB0006F21D02000F022FAE81985B2E019C4B201
:100CC000B5420CDA1CB908F1010000F0FF0800225F
:100CD00011464046FFF707FE2046FFF716FEB542D5
:100CE000D7DBBDE8F08770B504460D4623462A469B
:100CF0007421D02000F0CEF970BD10B53A21D0207B
:100D000000F0A5F910BD10B50446234607226A215C
:100D1000D02000F060FA10BD10B50021D02000F006
:100D200096F9044604F0010010BD10B50021D02052
:100D300000F08DF9044604F03F04204610BD38B59C
:100D40000446E0B206231A4600210090D02000F0AD
:100D50000DFA38BD10B50121D02000F078F9044615
:100D600004F03F04204610BD38B50446E0B2062327
:100D70001A4601210090D02000F0F8F938BD10B5D6
:100D80000221D02000F063F9044604F03F0420461D
:100D900010BD38B50446E0B206231A460221009081
:100DA000D02000F0E3F938BD70B504460D46032CA1
:100DB00000DD70BD04EB44002530C1B22A46D020CE
:100DC00000F0CAF900BFF4E710B501231A466A2102
:100DD000D02000F000FA10BD10B5044623460622CC
:100DE0006A21D02000F0F7F910BD10B501230322CD
:100DF0006A21D02000F0EFF910BD0000640300204C
:100E000008B50121082006F073FDC020ADF80000F0
:100E100010208DF8030003208DF802006946FE487B
:100E200006F0AAFAFDA008F03BFE08BD10B5FA488E
:100E3000006820F07040F84908600846006840F0FB
:100E4000405008600120FC490860FC49C1F8980145
:100E50000420FFF70BFB0020F74908600420FFF790
:100E600005FB0020F549C1F8980110BD10B5EA480E
:100E7000006820F07040E84908600846006840F0CB
:100E8000405008600020EC49091F0860EB49C1F898
:100E90009C010420FFF7EAFA0120E749091F0860D6
:100EA000E649C1F89C010420FFF7E0FA10BD10B537
:100EB0000024D948006820F07040D74908600846EF
:100EC000006840F0004008600120DB490860FFF73F
:100ED000CDFA0120D949C1F89801FFF7C7FA0AE015
:100EE000601CC4B2322C03DDFFF7C0FF012010BD2F
:100EF0000120FFF7BBFAD048803800680028EFD106
:100F0000CD49091F086000BFF1E710B50020CA49AC
:100F1000091F0860C048006820F07040BE490860A2
:100F20000846006840F0405008600020C349C1F8FE
:100F30009C010120FFF79AFA0120BF49091F0860B0
:100F4000FFF794FA0020BD49C1F8980110BD10B513
:100F50000020B949091F0860AF48006820F07040C0
:100F6000AD4908600846006840F040500860012024
:100F7000B249C1F89C01FFF779FA0120AE49091F77
:100F80000860FFF773FA0020AC49C1F8980110BD62
:100F900070B50446A048006820F070409E49086083
:100FA0000846006840F0405008600020A249091F30
:100FB0000860002516E0E0099F4908606006040EFD
:100FC0000120FFF753FA01209C49C1F89801FFF76F
:100FD0004DFA00209849091F08600120FFF746FAE2
:100FE000681CC5B2082DE6DB70BD70B5054600244F
:100FF0008948006820F0704087490860084600680A
:1010000040F000400860002617E000208A49091FD0
:1010100008600120FFF72AFA01208849C1F89801E9
:101020006006040E84488038006808B1601CC4B2B1
:101030000120FFF71BFA701CC6B2082EE5DB15B1C4
:10104000FFF763FF01E0FFF782FF204670BD70B538
:1010500005460E460024FFF7E9FE2846FFF798FFF5
:10106000641CFFF724FF3046FFF792FF641CFFF774
:101070001EFFFFF7DBFE691CC8B2FFF789FF641C87
:10108000FFF715FF0020FFF7B0FF0446FFF7EEFE65
:10109000204670BD2DE9F04706460F461546984696
:1010A0000024FFF7C3FE3046FFF772FFFFF7FFFE95
:1010B0003846FFF76DFFFFF7FAFEFFF7B7FE711C2A
:1010C000C8B2FFF765FFFFF7F2FE00BF0FE0681E32
:1010D000A04204D00120FFF788FF814603E00020F2
:1010E000FFF783FF814608F80490601CC4B2AC424D
:1010F000EDDBFFF7BBFE2046BDE8F0872DE9F041B0
:1011000080460D4616461F460024FFF78FFE4046D8
:10111000FFF73EFFFFF7CBFE2846FFF739FFFFF74B
:10112000C6FE00BF06E0385DFFF732FFFFF7BFFEE7
:10113000601CC4B2B442F6DBFFF798FE0120BDE8A4
:10114000F08170B505460E46144631462846FFF735
:101150007EFF2070012070BD37B504460D4602ABFE
:10116000012229462046FFF7C9FF3EBD2DE9F8437D
:101170000746884614461D46089E6A46414638463C
:10118000FFF7DFFF28B3601CFF2101FA00F0C4F174
:1011900008012944491EFF220A41104300F0FF09BB
:1011A000C5F1080006FA00F0C6B2C4F10700064116
:1011B0009DF8000000EA090000909DF8000030430F
:1011C00000909DF8002041463846FFF7C5FFBDE876
:1011D000F8830020FBE7F8B506460F4614461D4687
:1011E0006A4639463046FFF7ACFF2DB10120A040DA
:1011F0009DF80010084305E00120A0409DF8001074
:1012000021EA0000C0B200909DF800203946304627
:10121000FFF7A2FFF8BD0000000C01404949432040
:1012200062757320696E6974207375636365737387
:101230002E2E2E0D0A0000009C81214200802142AA
:1012400010B50121CA4807F0B0FA00284DD0C948AE
:101250000088401CC7490880C7480088401CC64910
:101260000880C6480088401CC4490880C4480088DB
:10127000401C80B2C249088000EBC00101EB0010A5
:101280004FF47A71B1EB400F05DC0020BC490880B7
:101290000120BC490870BC480088401C80B2BA4993
:1012A000088000EB80004FF47A71B1EB800F05DC11
:1012B0000020B54908800120B4490870B44800886E
:1012C000401C80B2B249088000EB80004FF47A7174
:1012D000B1EB400F05DC0020AD4908800120AD498D
:1012E00008700121A24807F071FA10BD2DE9F04FF6
:1012F00085B00121A84807F058FA00287CD000F0FA
:1013000086FEA6490860C8680BF030FACDE90201F4
:10131000A24908680AF0C7FE80460022A04B0AF0E6
:101320003BFD06460F469D4948690BF01FFA3246C1
:101330003B46CDE900010AF009FF0446DDE902233E
:101340000AF004FF82460AF039FC94494860954847
:101350000068401C9349086008460068B0F5FA7FB1
:101360007ED1002008609049D1F8B0000BF0FEF962
:10137000044622460B468DA008F092FB8A49D1F81C
:10138000AC000BF0F3F9044622460B468EA008F0A1
:1013900087FB8549D1F8A8000BF0E8F904462246FE
:1013A0000B4690A008F07CFB95A008F079FB4FF06D
:1013B0008040818E9CA008F073FB4FF08040018F2D
:1013C0009FA008F06DFB4FF08040818FA2A008F035
:1013D00067FBA7480188A7A008F062FB88A008F077
:1013E0005FFBAA49C8680BF093FB06460BF0BEF9F9
:1013F000044622460B4600E03FE0A5A008F050FB63
:10140000A24948690BF0B2F9044622460B46A7A050
:1014100008F046FB9D4908690BF07AFB0746AA498C
:101420000BF0D6FB04460BF0A1F905462A460B4605
:10143000A6A008F035FB72A008F032FB57494868B7
:101440000BF094F9044622460B46A7A008F028FBAF
:1014500007F098FD049004980BF088F9044600E02A
:1014600007E022460B46A8A008F01AFB64A008F08B
:1014700017FB0121484807F0A9F905B0BDE8F08F36
:101480003EB505460C460121042006F03EFA3848D8
:1014900006F092FAA0B2ADF80400681E80B2ADF872
:1014A00000000020ADF80600ADF8020069463048A3
:1014B00006F056FB01212E4807F074F9012211466F
:1014C0002B4806F0C4FE0121294806F0A5FE94A091
:1014D00008F0E6FA3EBD3EB505460C460121022065
:1014E00006F013FA2C4806F067FAA0B2ADF8040033
:1014F000681E80B2ADF800000020ADF80600ADF81F
:1015000002006946244806F02BFB0121224807F01F
:1015100049F901221146204806F099FE01211E4892
:1015200006F07AFE85A008F0BBFA3EBD08B54FF480
:10153000A06005F053FE1D208DF8000002208DF8FC
:10154000010000208DF8020001208DF8030068469C
:1015500005F049FE1E208DF8000001208DF80100E5
:101560008DF802008DF80300684605F03CFE08BDCA
:10157000000800402A000020380000203E00002023
:101580003A000020300000204000002033000020FE
:1015900042000020340000200004004030090020F8
:1015A0000000B04044000020B00A002020596177BC
:1015B000202D2D2D3E2025352E3266206465677244
:1015C00065650D0A000000002050697463682D2DC8
:1015D0002D3E2025352E3266206465677265650DC7
:1015E0000A00000020526F6C6C202D2D2D3E20250E
:1015F000352E3266206465677265650D0A0000004D
:101600003D3D3D3D3D3D3D3D3D3D3D3D3D3D3D3D0A
:101610003D3D3D3D3D3D3D3D3D3D3D3D3D3D3D3DFA
:101620003D3D3D3D0D0A0000204D6F746F72204D11
:10163000312050574D2D2D2D3E2025640D0A0000E0
:10164000204D6F746F72204D322050574D2D2D2D2F
:101650003E2025640D0A0000204D6F746F72204DEE
:10166000332050574D2D2D2D3E2025640D0A0000AE
:1016700040000040204D6F746F72204D3420505751
:101680004D2D2D2D3E2025640D0A0000FC09002063
:10169000205072657373757265202D2D2D3E2025A7
:1016A000352E32662050610D0A00000020416C7416
:1016B0006974756465202D2D2D3E2025352E3266EA
:1016C000204D0D0A000000000AD7233C2054656D10
:1016D00070657261747572652D2D2D3E2025352E35
:1016E000326620430D0A00002042617474657279ED
:1016F00020566F6C746167652D2D2D3E2025332E8D
:101700003266760D0A00000020486F76657220541C
:101710006872752D2D2D3E2025332E32660D0A0060
:1017200054696D6572203420696E69742073756325
:10173000636573732E2E2E0D0A00000054696D65CB
:1017400072203320696E69742073756363657373E7
:101750002E2E2E0D0A00000030B540F2E734A042D4
:1017600000DB204640F2E734A14200DB214640F294
:10177000E734A24200DB224640F2E734A34200DB1A
:101780002346002800DC0020002900DC0021002A7C
:1017900000DC0022002B00DC00234FF08045A886EF
:1017A0002987AA87384D2B8030BD10B588B000241A
:1017B0000121042006F09CF80121084606F0A5F856
:1017C0000F20ADF81C0018208DF81F0002208DF8A6
:1017D0001E0007A92D4805F0CFFD4FF0804006F010
:1017E000EBF82B4800682B49B0FBF1F0401E84B2A7
:1017F00040F2E730ADF81400ADF810400020ADF82D
:101800001600ADF8120004A94FF0804006F0A8F9C8
:10181000684606F0DAFC6020ADF800000120ADF863
:1018200002000020ADF80600ADF8080069464FF050
:10183000804006F0D2F969464FF0804006F00FFA7A
:1018400069464FF0804006F057FA69464FF08040F5
:1018500006F09DFA0821C80606F00EFE0821C8060B
:1018600006F013FE0821C80606F01CFE0821C80673
:1018700006F021FE0121880706F0CEFC06A008F044
:101880000FF908B010BD0000400000400008014002
:101890000000002000366E014D6F746F7220696E7B
:1018A000697420737563636573732E2E2E0D0A00A1
:1018B00010B58B488B4948608B4848608BA008F076
:1018C000EFF810BD8748006940F080008549086145
:1018D00070478448C16801F0010008B101207047D9
:1018E00001F0040008B10220F9E701F0100008B18E
:1018F0000320F4E70020F2E770B5044600BFFFF7CD
:10190000E8FF0546012D00D006E00120FEF7AEFD00
:10191000601E84B2002CF2D100BF04B9FF25284616
:1019200070BD70B50546002445F6FF70FFF7E4FF73
:101930000446C4B96B48006940F002006949086177
:1019400008464561006940F04000086145F6FF70B7
:10195000FFF7D2FF0446012C05D06248006920F051
:10196000020060490861204670BD70B505460E460C
:10197000FF20FFF7C1FF044694B95A48006940F0C0
:101980000100584908612E80FF20FFF7B5FF04468B
:10199000012C05D05348006920F00100514908612D
:1019A000204670BD0146088870472DE9F041054684
:1019B0000E461746002407E036F814102846FFF7B5
:1019C000D4FFAD1C601C84B2BC42F5DBBDE8F081E5
:1019D00030B503460C461546002207E01846FFF7CF
:1019E000E1FF24F812009B1C501C82B2AA42F5DBD6
:1019F00030BD2DE9F05F80468A461746B8F1006F8A
:101A000002D34248804501D3BDE8F09FFFF750FF65
:101A1000A8F1006B4FEA9B25CBF34809C9F5007488
:101A2000A74200DC3C464DE04FF0006101EB852011
:101A30008A143749FFF7CCFF00260BE009EB0600BC
:101A4000334931F810004FF6FF71884200D003E0AF
:101A5000701C86B2A642F1DB00BFA6421BDA4FF033
:101A6000006101EB8520FFF75CFF002608E03AF8F3
:101A7000160006EB0901264A22F81100701C86B2F6
:101A8000A642F4DB4FF0006101EB85208A14204967
:101A9000FFF78BFF04E0224651464046FFF785FFE3
:101AA000A74200D10FE06D1C4FF000090AEB440A79
:101AB000A044381B87B2B7F5007F02DD4FF40074F5
:101AC00000E03C46B0E700BFFFF7FCFE00BF9BE72D
:101AD00013B50446012201A92046FFF78AFF1CBD69
:101AE0002301674500200240AB89EFCD496E6E654A
:101AF0007220464C41534820756E6C6F636B2073A7
:101B00007563636573732E2E2E0D0A0000000108A5
:101B100016040020014600BF704700BF8F4A12889C
:101B200002F04002002AF9D0C2B28C4B1B1D1A8071
:101B3000704708B525208DF8000000208DF80100C1
:101B40008DF8020001208DF80300684605F04BFB7C
:101B500008BD2DE9F05F05460E4630010AF0F0FFA2
:101B600081467F4905FB01F00AF0EAFF82464946BB
:101B70000AF09CFE074638460AF0AAFF84B22046C7
:101B80000AF0DEFF834639460BF050F982464FF0EB
:101B900083410BF01DF881460AF09AFF80464FF60C
:101BA000FF7000EA041404EB080084B26D488069F9
:101BB00040F004006B4988610846806940F4804029
:101BC00088616948006820F47F60674908600846BA
:101BD000006840F40B6008606248C06840F48040D0
:101BE0006049C8600846C06820F48040C8605B480F
:101BF00008300480001D008842F20C010843574958
:101C00000C3108800846008840F48070088008463F
:101C1000008840F020000880FFF78BFF0020534928
:101C2000088048807F208880514888600020514982
:101C3000088048807F2088804F48886029464FA0D0
:101C400007F02EFF314655A007F02AFFBDE8F09FB0
:101C5000028883881A40836899540288521C028043
:101C6000704710B5044621464048FFF7F1FF0122B6
:101C700040F22771394806F088FE10BD10B50446C1
:101C800021463A48FFF7E4FF012240F2277133482A
:101C900006F07BFE204610BD01464A888B881A401C
:101CA0008B68985C4A88521C4A80704701460888B5
:101CB0004A88801A8A88104070470188418070479E
:101CC00070B504460D46002606E021782748FFF748
:101CD000BFFF641C701CC6B2AE42F6DB012240F2AC
:101CE00027711E4806F051FE70BD10B540F22771F5
:101CF0001A4806F02FFF90B11C48FFF7CDFF0446AD
:101D00002146164806F0A2FE1848FFF7CFFF18BB81
:101D1000002240F22771114806F037FE1CE040F225
:101D200025510E4806F016FFB0B140F225510B4880
:101D300006F03AFF094806F08DFE1F490870084674
:101D400001780C48FFF784FF1B48007801F087FDFD
:101D50001948007801F01CFF10BD00000038014058
:101D600040420F0000100240040801401808002003
:101D7000B008002024080020300800204D435520E2
:101D8000636C6F636B206672657175656E63793A1B
:101D900025644D487A200D0A000000005541525438
:101DA000203120626175642066726571756E637999
:101DB0003A2564200D0A00004C00002010B5E348CD
:101DC000806940F00800E1498861E148006820F03E
:101DD0000F00DF490860DD48806940F40070DB498E
:101DE00088610846C06840F40070C8600846C06852
:101DF00020F40070C8600846406820F44040486005
:101E00000846406840F400404860D2480068D24923
:101E10000840D04908600846006808600846006825
:101E200020F480700860081D006820F00200091D81
:101E300008600846006820F46020086008460068D2
:101E400040F4602008600846006840F48010086094
:101E50000846006820F4006008600846006840F406
:101E600000000860BB482830006820F47000B949C1
:101E7000283108600846006800200860B5480C302A
:101E8000006820F03800B3490C310860084600684B
:101E900040F038000860081F006820F4E010091FB7
:101EA00008600846006840F4E0100860081F0068F9
:101EB00040F00100091F08600846006840F0080073
:101EC000086000BFA348001D006800F0080000285B
:101ED000F8D1A048001D006840F004009D49091D8C
:101EE000086000BF9B48001D006800F00400002847
:101EF000F8D19A489A4988609A4808619A48C86017
:101F00000A46116990680AF0D1FC954948610020A1
:101F1000C86196A007F0C4FD10BD01468D48303061
:101F2000006820F01F008B4A3032106010460068B5
:101F3000084310608748001D006840F48000854A0F
:101F4000121D106000BF8348001F006800F00200EF
:101F50000028F8D07F484830006880B2704770B5DC
:101F600006460B460024002505E03046FFF7D5FF66
:101F70000444681CC5B29D42F7DBB4FBF3F080B2A9
:101F800070BD2DE9FE4F0024A14608E01020FFF7A8
:101F9000C4FF204484B209F1010000F0FF09B9F147
:101FA000140FF3DB142094FBF0F084B220460AF007
:101FB000C7FD82460AF0DAFB07464FF06632734BE4
:101FC0000AF0C4F8054609F0F9FD029002980AF0FB
:101FD000CDFB05466E4A6F4B0AF0ECF907466E4A98
:101FE0006E4B09F0D9FE00226D4BCDE9000109F0DE
:101FF00017FE824609F0E2FD02906A4902980AF053
:10200000E7FD029002980AF047FDBDE8FE8F00B59B
:1020100005210820FFF7A3FF00BD2DE9FF5FFFF7B3
:10202000F6FF4F490860C8680AF0A0FB82468B465D
:102030004B4908680AF037F8804600225A4B09F0ED
:10204000ABFE04460D46464948690AF08FFB06463A
:1020500022462B460AF07AF852465B46CDE900014B
:102060000AF074F8CDE9020109F0A8FD3C49486086
:102070004E480078002832D048680AF077FB0446C2
:102080004B4A4C4B0AF026F803D801203449087615
:1020900002E0002032490876314948680AF066FBC0
:1020A00004464FF03332444B0AF014F813D82C484E
:1020B000C069401C2A49C8610846C06908282ADD51
:1020C00002203E49087040F2DC503D4908804880BB
:1020D0008880C8801FE000202149C8611BE020499A
:1020E00048680AF043FB04464FF03332354B09F0A1
:1020F000F1FF0DD21A4948680AF038FB0446002265
:10210000314B0AF021F903D201201549087602E08B
:10211000002013490876124948680AF027FB044654
:102120000022294B09F0D6FF0AD201200C4948763B
:102130000421074805F0CFF924A007F0B1FC02E024
:10214000002007494876BDE8FF9F000000100240CC
:10215000000C014004240140FFFFF0008FC28540C5
:10216000300900208FC20540B81E6540426174747A
:10217000657220766F6C7461676520414420696EDA
:102180006974202E2E2E0D0A0000000066664A3F5C
:10219000E17A14AE47E1F63F22FDF675E09C713F0F
:1021A00000003940000020410000B04060030020E2
:1021B000703D0AD7A370094033330940240300203F
:1021C000DE00002033330D400000F03F4254207009
:1021D0006F77657220636C6F7365207375636365D9
:1021E00073732E2E2E0D0A0008B50121082005F06C
:1021F0007FFB41F2B000ADF8000010208DF8030025
:1022000003208DF802006946FE4805F0B5F848F253
:102210004000ADF8000004208DF8030003208DF885
:1022200002006946F74805F0A7F84FF48051F548D9
:1022300005F051F91021F34805F04BF92021F14840
:1022400005F049F9F0A007F02BFC08BD70B5044675
:1022500000251FE02021EB4805F03DF904F0800047
:1022600020B18021E74805F034F903E08021E548FA
:1022700005F031F96006040E2021E24805F029F945
:102280004021E04805F00BF9012801D144F0010498
:10229000681CC5B2082DDDDB2021DA4805F01BF9EA
:1022A000204670BD70B505460C461021D54805F096
:1022B00012F92846FFF7CAFF2046FFF7C7FF102193
:1022C000D04805F006F970BD70B504461021CD4820
:1022D00005F001F92046FFF7B9FF0020FFF7B6FF30
:1022E00005461021C74805F0F4F8284670BD2DE9D1
:1022F000F04107460D4616461021C24805F0EBF89E
:1023000000243846FFF7A2FF00BF04E0285DFFF776
:102310009DFF601CC4B2B442F8DB00241021B94810
:1023200005F0D7F8BDE8F0812DE9F04107460D46EC
:1023300016461021B34805F0CEF83846FFF786FF61
:10234000002405E00020FFF781FF2855601CC4B27F
:10235000B442F7DB1021AB4805F0BBF8BDE8F081D3
:1023600010B54FF48051A74805F0B5F88E21202014
:10237000FFF798FF0A20FEF779F810BD10B54FF46B
:102380008051A04805F0A7F88F212020FFF78AFF91
:102390004FF480519B4805F09CF80220FEF755F859
:1023A00010BD10B50720FFF78FFF00F07004204626
:1023B00010BD10B570212720FFF774FF10BD10B5B8
:1023C0000021E120FFF76EFF0021E220FFF76AFF06
:1023D00010BD10B504464FF480518A4805F07BF8D3
:1023E0009048047021462520FFF75CFF10BD70B5B2
:1023F00004460D464FF48051824805F06AF81420D7
:10240000FEF734F84FF480517E4805F064F82A4610
:102410002146A020FFF76BFF4FF48051794805F06B
:1024200058F81420FEF722F84FF48051754805F053
:1024300052F800BF4FF40041724805F030F8002810
:10244000F8D10720FFF740FF00F070063146272043
:10245000FFF728FF0021E120FFF724FF70BD70B5D2
:1024600004460D464FF40041664805F018F801286F
:1024700001D1002070BD4FF48051624805F02BF867
:102480002A4621466120FFF74FFF0021E220FFF797
:1024900009FF70212720FFF705FF4FF480515948AD
:1024A00005F017F807F071FA0120E3E71FB55EA108
:1024B00003C9CDE902010024052202A93020FFF75B
:1024C00016FF052269461020FFF72EFF00BF06E029
:1024D0001DF80400C22800D003E0601CC4B2052C23
:1024E000F6DB00BF052C05D151A007F0D9FA012079
:1024F00004B010BD52A007F0D3FA0020F8E700B5F1
:1025000087B055A103C9CDE9050155A00068049025
:1025100054A103C9CDE9020154A00068019054A060
:1025200000680090FFF760FEFFF7C0FF4FF4805196
:10253000344804F0D0FF1021324804F0CAFF2021B3
:10254000304804F0C8FF4E20364908705A21532005
:10255000FFF7A8FEA5215320FFF7A4FE0021E120EC
:10256000FFF7A0FE0021E220FFF79CFE702127204C
:10257000FFF798FE01212220FFF794FE032123207C
:10258000FFF790FE4E212520FFF78CFE072131201A
:10259000FFF788FE052237493020FFF7A8FE052205
:1025A00034492A20FFF7A3FE052205A93F20FFF7A3
:1025B0009EFE062202A93A20FFF799FE012201A9F8
:1025C0003920FFF794FE032204A93E20FFF78FFE77
:1025D000032269463B20FFF78AFE00213C20FFF7DB
:1025E00061FE00213D20FFF75DFEFF212620FFF761
:1025F00059FE00212420FFF755FE00212120FFF77E
:1026000051FE39E0000801405350492062757320A3
:10261000696E697420737563636573732E2E2E0D56
:102620000A000000A5000020C2C2C2C2C200000011
:10263000524620666F756E642E2E2E0D0A00000025
:10264000524620636865636B206661696C65642E21
:102650002E2E0D0A0000000012EC6FA146000000B3
:10266000F6375D00D521EB2C5A4000001F0000001A
:102670000BDF0200A000002000213D20FFF712FE2A
:1026800007B000BD10B588B0044623A103C9CDE949
:102690000601AFF234000068059021A103C9CDE91D
:1026A000030121A000680290AFF23C000068019095
:1026B0004FF480511D4804F00EFF5A215320FFF7BC
:1026C000F1FDA5215320FFF7EDFD21462520FFF761
:1026D000E9FDFF212620FFF7E5FD052206A93F20A1
:1026E000FFF705FE062203A93A20FFF700FE0122AC
:1026F00002A93920FFF7FBFD032205A93E20FFF7C1
:10270000F6FD032201A93B20FFF7F1FD41F28830DD
:10271000FDF7ACFE08B010BD0A6D679C46000000D6
:102720004521EFAC5A500000E100000000080140D4
:1027300010B5F4221146D820FEF70EFD10BDF0B5FD
:102740000146FE48814205DB6722FD4CFD4D40F20B
:10275000371389E0FC48814205DB6222FB4CFC4DCB
:102760004FF4A97380E0FB48814205DB5D22FA4CFF
:10277000FA4D4FF4B97377E0F948814205DB5822EE
:10278000F84CF94D40F297136EE0F848814205DBB2
:102790005322F74CF74D4FF4E17365E0F648814260
:1027A00005DB4E22F54CF64D40F2F5135CE0F548A2
:1027B000814205DB4922F44CF44D4FF40C7353E095
:1027C000F348814205DB4422F24CF34D4FF41E7373
:1027D0004AE04FF21860814205DB3F22EF4CF04D9A
:1027E00040F2CF2340E04EF29020814205DB3A22B6
:1027F000EC4CED4D40F23A3336E04CF60870814235
:1028000005DB3522E94CEA4D4FF470732CE04BF6B2
:102810008030814205DB3022E64CE74D40F26B43CD
:1028200022E04AF2F870814205DB2B22E34CE44DB2
:1028300040F24A5318E049F27040814205DB2622FB
:10284000E04CE14D40F276630EE048F2E800814250
:1028500005DB2122DD4CDE4D40F6180304E01C228E
:10286000DC4CDD4D40F67A2302EB4200C0EBC21097
:10287000A1EBC00006B205FB06F0871003FB06F0D3
:10288000801270434FEA201C07EB841060448011D3
:10289000F0BD2DE9F34F96B0DFF840A39AF800A001
:1028A000BAF1030F1FD140F22F2ACDF804A040F255
:1028B000252ACDF800A04FF4FA6ACDF81CA04FF4F9
:1028C0002F7ACDF818A06FF4BD6ACDF814A04FF0A0
:1028D0002E0ACDF810A040F2333ACDF80CA06FF0DC
:1028E000080ACDF808A0DDF85CA0AAF5000A4FEAB6
:1028F0002A1ADFF8E8B2BBF818B00AEB0B11DFF8C0
:10290000DCA2BAF81AA041F26B1BDA440AFB01FA06
:102910004FEA6A07DFF8C4A2BAF81CA0AAF5807AC9
:102920000AFB01FA4FEAAA3A0AFB01FA4FEA2A1C0B
:10293000DFF8A8A2BAF81EA00AFB01FA4FEAAA4AD9
:102940000AFB01FA4FEAAA4A0AFB01FACDF854A0A1
:10295000DFF88CA2AAEB070AAAEB0C0BDDF854A057
:10296000ABEB0A0A4FEAEA3ADFF870B2CBF810A0F4
:1029700007EB0C0BDDF854A0DA444FEA2A30DFF8FD
:102980005CA2DAF830A0AAF5885AAAF15B0A0AFB21
:1029900000FACDF850A0DFF844A2BAF820A00AFB54
:1029A00000FA4FEA2A4A0AFB00FA4FEAAA0BCDF8CE
:1029B0004CB0DDE913BADA444FEAAA2ADFF81CB2B8
:1029C000DBF82CB0DFF81CE2F3440AEB0B1ACDF86D
:1029D00048A0DFF808A2BAF822A041F60C4BDA446E
:1029E0000AFB00FA4FEAAA22DFF8F0A1BAF824A005
:1029F0000AFB00FA4FEA6A4A0AFB00FA4FEA2A3356
:102A0000934201DB9D1A00E0D51A4FEAE52ADFF870
:102A1000CCB1DBF834B0DFF8D0E1F3440AFB0BF8BB
:102A2000C5F30A0ADFF8B4B1DBF834B0F3440AFBAB
:102A30000BFA4FEADA299A420CDBDFF8A0A1DAF8A8
:102A400034A0C8F1000BABEB090B0AEBEB2AF34601
:102A5000DA440AE0DFF884A1DAF834A008EB090BC5
:102A60000AEBEB2ADFF880B1DA44CDF844A0DDF8B8
:102A700058A0AAF5000ADDF848B0AAEB0B0A4FEA05
:102A8000EA0ACDF834A0DDF844A04FEAEA2BDDF8DD
:102A900034A00BFB0AFACDF830A0DDF844A0CAF34D
:102AA0000A0BDDF834A00BFB0AFB4FEAEB2BCDF849
:102AB0002CB0DDE90BBADA444FEAAA24DFF81CA1F6
:102AC000BAF82AA00AFB00FA0AF5001A4FEAEA0A45
:102AD000CDF838A0DFF804A1BAF826B0DDF838A0A8
:102AE0000BFB0AFB4FEA6B4A0AFB04FA4FEAAA0AFD
:102AF000CDF840A0DFF8E4A0BAF828B0DDF838A09F
:102B00000BFB0AFB4FEAEB3A0AFB04FA4FEAAA4A2C
:102B10000AFB04FACDF83CA0DDE90FBADA4404EB75
:102B2000EA3ADFF8C8B0DA44DFF8B0B0CBF80CA06E
:102B3000DA469AF800A0BAF1030F59E05892010062
:102B4000F5E2FDFFF1ADFFFFD07E0100D3470400A9
:102B500093AAFFFF486B0100C5F10A00E3A6FFFF3F
:102B6000C0570100ADE71100D2A2FFFF38440100B9
:102B70008C311900519EFFFFB0300100C5D82000F4
:102B80004C99FFFF281D01007AE82800A993FFFF58
:102B9000A0090100026E31004A8DFFFF8C793A00D6
:102BA0000386FFFF031F44009F7DFFFF57774E0002
:102BB000D373FFFF5CA259003968FFFFAAC9650003
:102BC0003E5AFFFF2D2573000749FFFFCB0282000D
:102BD0004433FFFF08D49200C816FFFFFC09002011
:102BE0000000E2040AD701001A8A0200A086010050
:102BF00075D1DA469AF801A00AF0010ABAF1000F7D
:102C000031D0DA46DAF830A0AAF5804ACDF828A00B
:102C1000DA46DAF810A0AAF6C41ACDF824A0DDF836
:102C200028B0DDF800A00AFB0BFADDF804B00BEBCE
:102C30006A2A4FEA2A1ACDF820A0DDE908AB0AFB80
:102C40000BFA4FEAEA3BDDF824A00BFB0AFB4FEA44
:102C5000EB26DFF898A3DAF80CA0AAEB060ADFF857
:102C60008CB3CBF80CA0DFF884A39AF801A00AF08B
:102C7000020ABAF1020F32D1DFF870A3DAF810B00D
:102C8000DDF81CA0D3452ADADFF860A3DAF810A03B
:102C9000DDF814B00AFB0BFADDF810B00BEB2A4696
:102CA000DFF848A3DAF810B0DDF818A0D3450CDA45
:102CB000DFF838A3DAF810A0DDF80CB00AFB0BFA45
:102CC000DDF808B00BEB2A4A5644DFF820A3DAF807
:102CD0000CA0AAEB060ADFF814B3CBF80CA018B0CE
:102CE000BDE8F08F08B56B460322F621D820FEF729
:102CF000D1F99DF8000000049DF8011040EA012080
:102D00009DF802100843B949886008BD10B52E220D
:102D1000F421D820FEF720FA10BD08B56B46032237
:102D2000F621D820FEF7B6F99DF8000000049DF8C2
:102D3000011040EA01209DF802100843AB494860A9
:102D400008BD70B5AA480078022823D0032802D015
:102D500004285FD109E0FFF7EBFC00F0B6FAA549C3
:102D600008600420A249087058E000F0AEFAA149BA
:102D70000968401A42F6E06188420AD9FFF7CDFFA0
:102D8000FFF7C4FF00F0A1FA9A49086002209849B1
:102D9000087043E000F099FA96490968401AB0F5C6
:102DA0007A6F36D9FFF79EFF904A91685068FFF717
:102DB00070FD9148007868B98C49C868FFF7BFFC7E
:102DC000054609F0A5FE04468C4909F06FFD8749C8
:102DD000486112E08549C868FFF7B1FC064609F072
:102DE00097FE0546854909F061FD0446844801685F
:102DF00020460AF0ADF87D494861FF2081490870FE
:102E0000FFF796FC00F061FA7A49086004207849DF
:102E1000087003E004207649087000BF00BF70BD51
:102E200010B58AB01421684606F061FF05AB122286
:102E3000AA21D820FEF72EF900240CE0012000EB97
:102E4000440005A9085C11F8141040EA01202DF88F
:102E50001400601CC4B2092CF0DBBDF800000011A6
:102E600062490883BDF8040000F00700BDF80210B5
:102E700001F47F4140EA61105C494883BDF80200DB
:102E8000C1B2BDF8080061F35F0058498883BDF8FE
:102E90000400C010C883BDF80610BDF8000061F33F
:102EA0009F005249C862BDF8080040100863BDF891
:102EB0000A00C0100884BDF80C10BDF80A0061F3C8
:102EC000DF004A494863BDF80E00C0104884BDF8D1
:102ED000100080108884BDF8100000F00300BDF8D9
:102EE000121001F47F4140EAA1104049C884BDF8A6
:102EF0001200C0B20885BDF80E0000F00700BDF852
:102F0000001001F00C0140EA4100384948850AB040
:102F100010BD10B50320354948706B21D820FEF74D
:102F200096F83949087008460078422802D137A03F
:102F300006F0B6FDA521D820FEF789F800F0700054
:102F40008410F421D820FEF782F844EA9010274933
:102F50000870FFF765FF10BD2DE9F047002400253C
:102F6000002600202649086000F0AFF9054637E04A
:102F7000FFF7E7FE00F0A9F9064622480078FF288F
:102F800017D11A49C868FFF7DAFB814609F0C0FD7E
:102F900080461A4909F08AFC0746194801683846F4
:102FA00009F010FC16490860601C84B20020154925
:102FB0000870701B4FF47A71B0FBF1F040F6C41149
:102FC00088420DD3204609F0BBFD074639460C4820
:102FD000006809F06BFC0A49086001200649087086
:102FE000054800780028C3D0BDE8F087FC09002020
:102FF000B0000020B4000020C000002000007A448F
:10300000BC000020B8000020B900002046424D332B
:10301000323020666F756E642E2E2E0D0A00000071
:103020000C2000F0B6F900F03DF9844800684FF438
:103030007A72B0FBF2F1B1F1807F00D31DE021F094
:103040007F40401E4FF0E022506150170F220028B1
:1030500007DA13071D0E7A4B00F00F04241F1D55CD
:1030600003E013071C0E774B1C5400BF00204FF0E9
:10307000E02290610720106100BF4FF4E1317248F7
:103080000078FEF766FD00F057F9FEF711FC02F03C
:1030900087FFFDF713FAFEF788FBFEF78FFEFDF7BB
:1030A000AFFEFDF77EFBFFF72AFAFFF767F900F0A6
:1030B000F3F9FEF7B2FFFFF72CFF01F0F5FB4FF439
:1030C0007A7161480078FEF7DBF90A231A4619463F
:1030D0001846FEF741FB01205C490870FFF73CFFF2
:1030E000ABE05B4800880A282DDB002058490880A7
:1030F00000F0EBF857494968401A5749486000F01A
:10310000E4F85449486003F060FD01205349087019
:10311000FFF717FE5248007850B101F055FD38B165
:1031200000204F49087001204E4908704E49087030
:1031300005F074FE06F0DBFA00F0C7F8454949686F
:10314000401A4A49486007214948FFF788F9494829
:10315000007850B300204749087000F0B6F83D49A8
:10316000C968401A3C49C86000F0AFF83949C860E6
:1031700000F048FA03F0E7FF34480078022801D154
:1031800003F0BBFF01F00CFF05F0EDFF05F0B3FD10
:1031900039480078012801D001F00DFB00F095F8C6
:1031A0002C49C968401A3149C86034480078E0B3F6
:1031B00000203249087000F088F826498968401AD2
:1031C0002549886000F081F8224988602C480088F1
:1031D000401C80B22A49088000EBC00101EB0010BE
:1031E00041F28831B1EB800F04DC002024490880D3
:1031F000FEF713FF2348007820B100F047FC0020C1
:10320000204908701748007820B10020154908703F
:1032100002F0DDFE03F020FFFDF7BEF900F055F8E7
:103220000C498968401A114988601748007820B114
:1032300000201549087000F0E3FE52E7000000206E
:1032400018ED00E000E400E0CC00002024030020A2
:103250003E000020340A00205C0A002028000020E4
:103260007E01002068020020B00A0020480A0020E9
:10327000A600002030000020DA00002034000020EA
:10328000C2000020D1000020EC000020704700BFE9
:10329000FEE700BFFEE700BFFEE700BFFEE77047A6
:1032A0007047704700B585B0684604F0B4FA1F490E
:1032B0000098B0FBF1F01E49086005B000BD1D4844
:1032C0000068401C1B490860704700BF194801682E
:1032D0004FF0E0208269174800688142F6D1144817
:1032E000006800EB4003C3EBC010C2EBC000104B02
:1032F0001B68B0FBF3F001EB4103C3EBC11300EB20
:10330000C300704730B50446FFF7DFFF054600BF36
:10331000FFF7DBFF401B04EB4401C1EBC411B0EB32
:10332000C10FF5D330BD03480068704740420F001D
:10333000C4000020C800002010B5FEF7F7F8FEF723
:10334000F8FB10BD0020A2490861C8601420486144
:1033500000208861C8610846006840F001000860EC
:10336000084640689B4908409949486008460068FB
:1033700099490840964908600846006820F4802072
:1033800008600846406820F4FE004860002088601D
:10339000704701468E48006840F001008C4A10607A
:1033A0001046006810601046006840F480201060ED
:1033B00000BF8748006800F002000028F9D0844868
:1033C0004268881E42EA8040814A50601046406848
:1033D00050601046006840F08070106000BF7C486C
:1033E000006800F000700028F9D07948406840F08B
:1033F0000200774A50608806000E784A1070104626
:103400000078704700B502460023FFF79BFF704825
:10341000006840F480306E49086000BF6C48006866
:10342000400C0028FAD04FF4806069494860901E33
:10343000C2B20846406840EA824048600846406898
:1034400040F4803048606648006840F032006449CB
:1034500008605F48006840F080705D49086000BF08
:103460005B480068400E0028FAD05948406840F098
:1034700002005749486005E055484068C0F387039B
:1034800003F00303022BF7D1901CC006000E534932
:1034900008700846007800BD10B500245DE04FF4C8
:1034A0000061504804F017F84FF400714E4804F0E2
:1034B00010F84FF480714C4804F00BF84FF4805131
:1034C000494804F006F84948FCF7DCFF4FF4006176
:1034D000444803F0FEFF4FF40071434803F0FBFF44
:1034E0004FF48071404803F0F4FF4FF480513E48A0
:1034F00003F0EFFF3D48FCF7C5FF4FF4006139488A
:1035000003F0E7FF4FF40071374803F0E2FF4FF498
:103510008071354803F0DFFF4FF48051324803F0EB
:10352000D8FF3248FCF7AEFF4FF400612D4803F09E
:10353000D0FF4FF400712C4803F0CBFF4FF48071A3
:10354000294803F0C6FF4FF48051274803F0C3FF1A
:103550002648FCF797FF601CC4B2042C9FDB0024B4
:103560002FE04FF400611F4803F0B5FF4FF40071E6
:103570001D4803F0B0FF4FF480711B4803F0ABFF10
:103580004FF48051184803F0A6FF1848FCF77AFF63
:103590004FF40061134803F09CFF4FF40071124890
:1035A00003F097FF4FF480710F4803F092FF4FF440
:1035B00080510D4803F08DFF0C48FCF763FF601C41
:1035C000C4B2032CCDDB0AA006F06AFA10BD0000DD
:1035D000001002400000FFF8FFFFF6FECC000020C4
:1035E0000020024000080140000C0140A0BB0D007B
:1035F00041726D656420737563636573732E2E2E3F
:103600000D0A00002DE9F047F6480078022806D19F
:1036100040F2DC50F449C880888048800880F24835
:10362000C088B0F57A7F03DA4FF47A70EE49C8802B
:10363000ED48C088B0F5FA6F03DD4FF4FA60EA494F
:10364000C880E9488088B0F57A7F03DA4FF47A7051
:10365000E5498880E4488088B0F5FA6F03DD4FF4CF
:10366000FA60E1498880E0484088B0F57A7F03DA63
:103670004FF47A70DC494880DB484088B0F5FA6F37
:1036800003DD4FF4FA60D8494880D7480088B0F588
:103690007A7F03DA4FF47A70D3490880D2480088E1
:1036A000B0F5FA6F03DD4FF4FA60CF490880CE49D8
:1036B000C988A1F57A7009F02BFACC498860CA490B
:1036C0008988A1F2DC5009F023FA8146C84AC94929
:1036D00005F028FC044609F049F80746C64AC74BDE
:1036E00008F034FD054608F069FAC049C860BE49D3
:1036F0004988A1F2DC5009F00BFA8146C04ABD4965
:1037000005F010FC044609F031F807460022BD4BD5
:1037100008F01CFD054608F051FAB4494860B2496A
:103720000988A1F2DC5009F0F3F98146B44AB149A5
:1037300005F0F8FB044609F019F807460022B14BE2
:1037400008F004FD054608F039FAA8490860AE48BB
:103750000078012802D0032828D112E001F045FBAF
:1037600048B1AA48007E30B90220A7490870A520B8
:10377000A749087004E00020A5490870A249087014
:1037800015E00020A2490870012096490870A1495F
:1037900008700020A049086005F0F4FB9F4908600C
:1037A00000209F4908709849087000E000BF00BFE2
:1037B000BDE8F08710B59B4800790C2841D008DCA3
:1037C00005282ED0062830D0072809D0092844D152
:1037D0003FE00D2839D010282BD0CD283DD12CE04A
:1037E000904840798F49897940EA01207E49C88014
:1037F0008C48C0798B49097A40EA01207A4988804F
:103800008848407A8749897A40EA01207649488089
:103810008448C07A8349097B40EA012072490880C4
:103820001BE001207849087017E0032076490870F2
:1038300013E001207C4908700FE001207B490870EB
:103840000BE0012005F048FA07E0002005F044FAFB
:1038500003E002206349087000BF00BF10BD10B52F
:103860000446704872490978445471480078032826
:1038700034DA6F48007820B101280ED002282CD10C
:103880001BE068486A490978405C242804D16848EC
:103890000078401C664908701FE062486449097856
:1038A000405C4D2805D162480078401C6049087092
:1038B00002E000205E4908700FE05A485C49097830
:1038C000405C3C2805D15A480078401C5849087093
:1038D00002E000205649087000BF38E054480078E4
:1038E000032808D10020534908704E4850490978F0
:1038F000405C514908704E480078401C4C490870A3
:10390000084601784C480078801D814215DB484804
:103910000078401E4349085C46490978884208D12E
:10392000FFF748FF012045490870FFF7FCFC4449B8
:10393000086000203E49087009E03D480078401EBC
:103940003849085C3B49097848403A49087010BD3D
:1039500010B5044621463B48FEF77AF93548007811
:1039600060403449087010BD10B5044636490C70EB
:10397000084601783348FEF76BF92E480078324943
:10398000097848402B490870200A2F4908700846DA
:1039900001782C48FEF75CF9264800782A49097816
:1039A000484024490870200C2749087008460178CF
:1039B0002448FEF74DF91F4800782349097848400C
:1039C0001C490870200E20490870084601781D48DF
:1039D000FEF73EF9174800781B4909784840154919
:1039E000087010BD24030020DE000020300E0020EF
:1039F00000008C420000FA43AA9F9622DCA54C40AE
:103A00000000484200004440D90000203009002056
:103A1000600300202C03002034030020300300202A
:103A2000E4020020700A0020D10000207E01002066
:103A3000DB000020E6000020DC000020DA0000208F
:103A4000D400002018080020E700002010B504462C
:103A500045490C70084601784448FEF7F9F8444897
:103A6000007841490978484041490870200A3E4998
:103A70000870084601783D48FEF7EAF83C480078AF
:103A80003949097848403A49087010BD70B524207A
:103A9000FFF75EFF4D20FFF75BFF3E20FFF758FF6B
:103AA0000020334908700E20FFF752FF1020FFF767
:103AB0004FFF3049D1F8A8002F4909F089F8054691
:103AC00008F0EAFF04B22046FFF7C0FF2949D1F809
:103AD000AC00294909F07CF8054608F0DDFF04B286
:103AE0002046FFF7B3FF2349D1F8B000224909F07F
:103AF0006FF8054608F0D0FF04B22046FFF7A6FF96
:103B00001E48806880F000461D49304609F060F884
:103B1000054608F0C1FF0446FFF726FF194948682B
:103B2000174909F055F8054608F0B6FF04B22046DB
:103B3000FFF78CFF1148406980F00046124930467B
:103B400009F046F8054608F0A7FF04B22046FFF743
:103B50007DFF07480078FFF7FBFE012240F2277146
:103B60000A4804F012FF70BDE80000201808002089
:103B7000E6000020B00A002000002041880B002051
:103B80000000C8423009002000007A44003801409B
:103B9000F749097807295AD2DFE801F0040D171D0B
:103BA000592C49000021F34A1170AA2802D10121A1
:103BB000EF4A11704BE0AF2803D10221EC4A11709B
:103BC00002E00021EA4A117041E0EB49087003214C
:103BD000E74A11703BE0E94908700521E44A117099
:103BE000E649097801F25911E34A12781144E14A91
:103BF00011702CE0E2490978E04A127891420CDA1F
:103C0000DF490A780978491CDD4B1970DD49885471
:103C1000D84909780144D74A1170D9490978D74A57
:103C20001278914202D10621D14A11700FE0D14998
:103C30000978814207D10121D34A11700021D04A6D
:103C40001170D24A11700021C94A117000BF00BF23
:103C5000704710B5002400BF05E0CD49085DFFF7AF
:103C600097FF601CC4B2062CF7DB10BDC9490A7867
:103C70000978491CC74B1970C7498854C749097846
:103C80000144C64A1170704710B50446C4F30720BA
:103C9000FFF7ECFFE0B2FFF7E9FF10BD70B5054696
:103CA0000E46002404E0285DFFF7E0FF601CC4B26C
:103CB000B442F8DB70BD10B5B6480178B648FDF7E0
:103CC000FFFF0020B3490870B449087010BD70B5FB
:103CD00004460020B1490870AA20FFF7C7FFAA20B8
:103CE000FFF7C4FF2046FFF7C1FF102C06D0112CB0
:103CF00050D0122C7ED0142C4BD1E5E00C20FFF7D5
:103D0000B5FFA7490868A74908F062FF064608F012
:103D1000C3FE05B22846FFF7B7FFA1494868A1498D
:103D200008F056FF064608F0B7FE05B22846FFF732
:103D3000ABFF9B4988689B4908F04AFF064608F09C
:103D4000ABFE05B22846FFF79FFF974908689549E3
:103D500008F03EFF064608F09FFE05B22846FFF732
:103D600093FF914948688F4908F032FF064608F0F2
:103D700093FE05B22846FFF787FF8B49886889497B
:103D800008F026FF064608F087FE05B22846FFF732
:103D90007BFFE5E00C20FFF769FF84490868814953
:103DA00008F016FF064608F077FE05B22846FFF732
:103DB0006BFF7E4948687B4908F00AFF064608F019
:103DC0006BFE05B22846FFF75FFF784988687549A2
:103DD00008F0FEFE064608F05FFE05B22846FFF733
:103DE00053FF734908686F4908F0F2FE064608F071
:103DF00053FE00E01CE005B22846FFF745FF6C4982
:103E00004868684908F0E4FE064608F045FE05B239
:103E10002846FFF739FF66498868624908F0D8FEEE
:103E2000064608F039FE05B22846FFF72DFF97E059
:103E30000C20FFF71BFF5F4908685A4908F0C8FECD
:103E4000064608F029FE05B22846FFF71DFF59492E
:103E50004868544908F0BCFE064608F01DFE05B24D
:103E60002846FFF711FF534988684E4908F0B0FE15
:103E7000064608F011FE05B22846FFF705FF4E4939
:103E80000868484908F0A4FE064608F005FE05B299
:103E90002846FFF7F9FE48494868424908F098FE6D
:103EA000064608F0F9FD05B22846FFF7EDFE424947
:103EB00088683C4908F08CFE064608F0EDFD05B226
:103EC0002846FFF7E1FE4BE00C20FFF7CFFE3B4911
:103ED0000868344908F07CFE064608F0DDFD05B2AE
:103EE0002846FFF7D1FE354948682E4908F070FE94
:103EF000064608F0D1FD05B22846FFF7C5FE2F495A
:103F00008868284908F064FE064608F0C5FD05B239
:103F10002846FFF7B9FE2A490868224908F058FEEA
:103F2000064608F0B9FD05B22846FFF7ADFE244964
:103F300048681C4908F04CFE064608F0ADFD05B285
:103F40002846FFF7A1FE1E498868164908F040FE82
:103F5000064608F0A1FD05B22846FFF795FE00BF12
:103F600000BF0E480078FFF781FEFFF7A4FE70BD8A
:103F70007B010020790100207701002078010020DA
:103F80007A010020900A0020EC000020DA000020D6
:103F90006F010020750100202F0100207601002014
:103FA000BC0C00200000C8428C0C00201C0D00201E
:103FB000EC0C00207C0D00204C0D0020DC0D0020BE
:103FC000AC0D002010B504460020FE490870FE49E3
:103FD0000870AA20FFF74AFEAA20FFF747FE2046F6
:103FE000FFF744FE0C20FFF741FE0C21F748FFF7D6
:103FF00055FEF4480078FFF739FEFFF75CFE10BD70
:1040000010B5F348007812287ED006DC022809D0CB
:10401000102818D0112815D178E0132875D014284D
:10402000F9D136E1E948007801280BD11020FFF7DB
:104030004EFE1120FFF74BFE1220FFF748FE142022
:10404000FFF745FE86E1E1494978E04A127841EA06
:10405000022108B208F05CFD0446DE4908F0B8FD14
:10406000DD490860D949C978D84A927841EA0221E5
:1040700008B208F04DFD0446D64908F0A9FDD6491E
:104080004860D2494979D14A127941EA022108B2FD
:1040900008F03EFD0446CF4908F09AFDCE498860FD
:1040A000CA49C979C94A927941EA022108B208F09D
:1040B0002FFD0446C74908F08BFDC8490860C34975
:1040C000497AC24A127A41EA022108B208F020FD78
:1040D0000446C04908F07CFDC0494860BB49C97A24
:1040E000BA4A927A41EA022108B208F011FD044668
:1040F000B84908F06DFDB94988601020FFF762FFEC
:104100000120B749087025E161E0C1E0AF49497875
:10411000AE4A127841EA022108B208F0F9FC0446DE
:10412000AC4908F055FDAF490860A849C978A74ACD
:10413000927841EA022108B208F0EAFC0446A54957
:1041400008F046FDA7494860A04949799F4A12797D
:1041500041EA022108B208F0DBFC04469D4908F060
:1041600037FDA04988609949C979984A927941EA0E
:10417000022108B208F0CCFC0446964908F028FD5C
:10418000994908609149497A904A127A41EA022194
:1041900008B208F0BDFC04468E4908F019FD9249AA
:1041A00048608A49C97A894A927A41EA022108B26A
:1041B00008F0AEFC0446874908F00AFD8A49886089
:1041C0001120FFF7FFFE012085490870C2E07F49FA
:1041D00049787E4A127841EA022108B208F098FC38
:1041E00004467C4908F0F4FC804908607749C978A6
:1041F000764A927841EA022108B208F089FC044626
:10420000744908F0E5FC79494860704949796F4A7A
:10421000127941EA022108B208F07AFC04466D499D
:1042200008F0D6FC714988606849C979674A927973
:1042300041EA022108B208F06BFC0446654908F027
:10424000C7FC6B4908606149497A604A127A41EAC1
:10425000022108B208F05CFC04465E4908F0B8FC94
:10426000634948605949C97A584A927A41EA022119
:1042700008B208F04DFC0446564908F0A9FC5C4918
:1042800088601220FFF79EFE01205549087061E00A
:1042900060E04E4949784D4A127841EA022108B25D
:1042A00008F036FC04464B4908F092FC514908607E
:1042B0004649C978454A927841EA022108B208F095
:1042C00027FC0446434908F083FC4A4948603F49BB
:1042D00049793E4A127941EA022108B208F018FCF5
:1042E00004463C4908F074FC424988603749C97962
:1042F000364A927941EA022108B208F009FC0446E4
:10430000344908F065FC3C4908603049497A2F4A35
:10431000127A41EA022108B208F0FAFB04462D495C
:1043200008F056FC344948602849C97A274A927AED
:1043300041EA022108B208F0EBFB0446254908F0E7
:1043400047FC2D4988601420FFF73CFE01202449DA
:10435000087000BF00BF10BD1CB50246002004E07D
:10436000135C0DF80030431CD8B28842F8DB002003
:1043700006E01DF800404B1E1B1AD454431CD8B253
:104380008842F6DB1CBD10B51C49D1F8A8001C49B9
:1043900008F01EFC044608F07FFB00B21949888033
:1043A0001649D1F8AC00164908F012FC044608F092
:1043B00073FB00B21349C8801049D1F8B00010490E
:1043C00022E000007601002075010020900A002004
:1043D000770100200AD7233CBC0C00208C0C002065
:1043E000680200201C0D0020EC0C00207C0D002039
:1043F0004C0D0020DC0D0020AC0D0020B00A002088
:104400000000C842F000002008F0E2FB044608F07B
:1044100043FB00B2F7490881F7498868F74908F07B
:10442000D7FB044608F038FBF249C860F448008A1C
:1044300000B20882F248C0684861EF494869EF4914
:1044400008F0C6FB044608F027FB00B2E9490883E0
:104450000221E848001DFFF77FFF0221E548801D8B
:10446000FFF77AFF0221E3480830FFF775FF0421C8
:10447000E0480C30FFF770FF0221DE481030FFF7F4
:104480006BFF0421DB481430FFF766FF0221D94897
:104490001830FFF761FF10BD2DE9F05F0020D9490A
:1044A0000870AA20FFF7E2FBAA20FFF7DFFB02203B
:1044B000FFF7DCFB1E20FFF7D9FBD349086DD3497A
:1044C00008F086FB054608F0E7FA04B22046FFF73D
:1044D000DBFBCD49486DCD4908F07AFB054608F075
:1044E000DBFA04B22046FFF7CFFBC749886DC74906
:1044F00008F06EFB054608F0CFFA04B22046FFF73D
:10450000C3FBC149886EC24908F062FB834608F0CC
:104510002DF90646BF4AC04B07F03EFC80460022FC
:10452000BE4B07F013FE044607F08EFD0FFA80FA2B
:104530005046FFF7A9FBB449C86EB54908F048FBDF
:10454000834608F013F98046B24AB34B07F024FCC7
:1045500006460022B14B07F0F9FD044607F074FD52
:104560000FFA80FA5046FFF78FFBA749086FA8495A
:1045700008F02EFB834608F0F9F88046A54AA64BC2
:1045800007F00AFC06460022A44B07F0DFFD0446B4
:1045900007F05AFD0FFA80FA5046FFF775FB00202E
:1045A000FFF772FB0020FFF76FFB0020FFF76CFBAB
:1045B00095494869954908F00BFB054608F06CFAE7
:1045C00004B22046FFF760FB8F4988698F4908F0E5
:1045D000FFFA054608F060FA04B22046FFF754FBE4
:1045E0008949C869894908F0F3FA054608F054FA80
:1045F00004B22046FFF748FB8349086A844908F063
:10460000E7FA834608F0B2F80646824A824B07F082
:10461000C3FB80460022814B07F098FD044607F05B
:1046200013FD0FFA80FA5046FFF72EFB7649486AD1
:10463000774908F0CDFA834608F098F88046754A25
:10464000754B07F0A9FB06460022744B07F07EFD70
:10465000044607F0F9FC0FFA80FA5046FFF714FB06
:104660006949886A6A4908F0B3FA834608F07EF817
:104670008046684A684B07F08FFB06460022674B6E
:1046800007F064FD044607F0DFFC0FFA80FA50469D
:10469000FFF7FAFA5B480078FFF7E8FAFFF70BFB41
:1046A000BDE8F09F70B508205D4988700C20C87087
:1046B0000020087100215A4841718171C171594827
:1046C000406880F000464D49304608F081FA0546C2
:1046D00008F0E2F9010A524801725248406880F03D
:1046E00000464649304608F073FA054608F0D4F90A
:1046F000C1B24B48417242494869444908F068FADE
:10470000054608F0C9F9010A454881723C494869E3
:104710003E4908F05DFA054608F0BEF9C1B24048CE
:10472000C1723949486E394908F052FA054608F015
:10473000B3F9010A3A4801733349486E334908F026
:1047400047FA054608F0A8F9C1B23548417300217F
:104750008173C1730020324981F8220000240AE0ED
:104760002F4890F822002E49095D08442C4981F811
:104770002200601CC4B2042CF2DB00240AE02848AA
:1047800090F82210001D005D0844254981F82200A0
:10479000601CC4B22248C078A042F0DC2048C07837
:1047A000001DC1B21E48FDF78BFA01211C482230C2
:1047B000FDF786FA70BD10B500241B480078401C38
:1047C0001949087008460078022801DD00200870A9
:1047D00015480078002853D1FFF7D5FD002405E0E7
:1047E0000448005D11490855601CC4B20A2CF7DB6F
:1047F0000A2423E0F0000020880B00200000C842BB
:10480000FC09002076010020B00A002000007A4454
:10481000000034434AD8124DFB21094000005940A2
:104820000C010020300E00207C0100202F01002010
:104830001A48005D1A490855601CC4B2102CF7DBF9
:10484000102406E01548801C005D15490855601CC1
:10485000C4B2172CF6DB002011498875002408E04B
:104860000F48807D0E49095D08440D498875601C1C
:10487000C4B2162CF4DB17210948FDF721FA0CE02D
:1048800008480078012802D1FFF706FE05E0054838
:104890000078022801D1FFF705FF10BDF2000020CB
:1048A0002F0100207C01002010B50020FE49487037
:1048B00001200870FD49FE4800F094FCFB49FC48CB
:1048C00000F06DFDF949FA4800F046FEF749F84856
:1048D00000F04EFFF549F64801F027F8F349F44897
:1048E00001F038F910BD2DE9F04F8FB004460D46A8
:1048F00016461F46284607F039FFEE4AEE4BCDE933
:10490000000107F023FC0022EC4BCDE9020107F087
:1049100043FACDE9040107F051F9069006F0B8FE1C
:104920000D90284607F022FFE24AE34BCDE9000153
:1049300007F00CFC0022E14BCDE9020107F02CFA54
:10494000CDE9040107F03AF9069006F063FF0C90F8
:10495000304607F00BFFD74AD74BCDE9000107F0EF
:10496000F5FB0022D54BCDE9020107F015FACDE9A0
:10497000040107F023F9069006F08AFE80463046CF
:1049800007F0F4FECB4ACC4BCDE9000107F0DEFB8B
:104990000022CA4BCDE9020107F0FEF9CDE904017E
:1049A00007F00CF9069006F035FF8146384607F00F
:1049B000DDFEC04AC04BCDE9000107F0C7FB002275
:1049C000BE4BCDE9020107F0E7F9CDE9040107F09C
:1049D000F5F8069006F05CFE8246384607F0C6FE03
:1049E000B44AB54BCDE9000107F0B0FB0022B34B50
:1049F000CDE9020107F0D0F9CDE9040107F0DEF8B6
:104A0000069006F007FF834650460D9908F0E0F83F
:104A10000B904146504608F0DBF80A9058460D9935
:104A200008F0D6F8099051460C9808F0D1F8089093
:104A300059460C9808F0CCF807900A98206059461F
:104A4000404608F0C5F8606089F00040A060494623
:104A5000089808F0BDF80690099880F0004005908D
:104A6000069907F0AFFEE0604946079808F0B0F8F5
:104A700006900B9907F0A6FE206141460C9808F0BD
:104A8000A7F8606149460B9808F0A2F806900799CC
:104A900007F098FEA0614946099808F099F8069039
:104AA000089880F000400590069907F08BFEE061C1
:104AB00040460D9908F08CF820620FB0BDE8F08FE9
:104AC00010B57F48808B784948807D48018C7648B6
:104AD00081807B48818C7448C1807948008A724902
:104AE00008817748818A704841817548018B6E48FA
:104AF00081817348406C6C4948617148816C6A4897
:104B000081616F48C16C6848C1616D48806B6649BE
:104B100008626B48C16B644841626948016C624835
:104B200081620246916B506908F012FA044600F067
:104B3000E5FB5D4908650A46D16B906908F008FA03
:104B4000044600F0B8FC584948650A46116CD06923
:104B500008F0FEF9044600F0BAFD534988650A469C
:104B6000516C106A08F0F4F9044600F08DFE4E49CD
:104B700088660A46916C506A08F0EAF9044600F02B
:104B800060FF4949C8660A46D16C906A08F0E0F9AE
:104B9000044601F06BF8444908674A484068C1F888
:104BA000AC0048480068C1F8A80046488068C1F8D1
:104BB000B0000846D0F8B030D0F8AC20D0F8A8103B
:104BC0007430FFF790FE10BD2DE9F041002600245F
:104BD00000270025FEF7A7FB85B23B480088281A6E
:104BE00087B23A48007898B901203849087000BF68
:104BF0000CE00020364941F82400364941F82400F1
:104C00003549088028494870601CC4B2032CF0DB89
:104C10000A2F74DB30480088B0F5967F25DA00242F
:104C200019E0214A143252F82410294A52F824007B
:104C300007F0C8FD264941F824001B4A203252F8EB
:104C40002410244A52F8240007F0BCFD214941F801
:104C50002400601CC4B2032CE3DB1F480088401C06
:104C60001D4908801848058049E000243AE01A48A8
:104C7000008807F065FF8046154951F82400414639
:104C800007F014FE0849383141F824001248008822
:104C900007F056FF80460F4951F82400414607F0BF
:104CA00005FE0149443119E0B00A00200000F0413E
:104CB0000000C8424AD8124DFB21094000806640DE
:104CC0006C0900205009002082010020840100208E
:104CD000700B00207C0B00208001002041F8240094
:104CE000601CC4B2032CC2DB6349086C634908F042
:104CF0002FF9614908640020614908700126304697
:104D0000BDE8F0812DE9F84F5B48801CFBF76FFD93
:104D100059480830FBF78DFD4FF0000A33E0564943
:104D2000891C31F91A0007F0F3FE05464FF0665171
:104D300007F04EFF0446514907F04AFF4E4914312F
:104D400041F82A000C3931F91A0007F0E1FE4D490B
:104D5000009007F03DFF834607F008FD06464A4AEB
:104D60004A4B07F0F3F904460022494B07F014F8C8
:104D7000804606F023FF4049203141F82A000AF11D
:104D8000010000F0FF0ABAF1030FC8DB3A4A916B49
:104D9000506908F0DDF8044600F0B0FA36490865BD
:104DA0000A46D16B906908F0D3F8044600F083FB03
:104DB000314948650A46116CD06908F0C9F80446C3
:104DC00000F085FC2C498865086A00F05DFD2A49E1
:104DD0008866486A00F035FE2749C866886A00F090
:104DE00045FF25490867BDE8F88F2DE9F047002405
:104DF000A046002509E02048801CFBF7F8FC1E486F
:104E0000B0F906000444681CC5B2052DF3DB20464A
:104E100007F096FE81461F4907F048FD07464FF010
:104E2000665107F0D5FE0646144907F0D1FE124937
:104E3000C8610A46116CD06908F08AF8804640467D
:104E400007F094FC0646144A144B07F07DFA0CD286
:104E5000404607F08BFC0646114A124B07F03AF920
:104E600003D201200449087002E0002002490870C2
:104E700001480078BDE8F087B00A00200AE81C412C
:104E80008401002000007A3D4AD8124DFB210940E0
:104E9000008066400000A040666666A667832340E7
:104EA0009A9999D99AB623402DE9F04705460C46C0
:104EB0002846A16807F08CFE8246294607F088FE46
:104EC00080464FF0804107F0F1FC074628466168B4
:104ED00007F07EFE8146394607F074FC06462168DD
:104EE00007F070FC20602846A16807F071FE0646B6
:104EF000616807F067FC6060BDE8F0872DE9FF4F4F
:104F000087B014469946DDF850A05146079807F03F
:104F10005FFE0546089907F05BFE069054F82900ED
:104F2000069907F04FFC44F82900B9F1000F28D189
:104F30005046069907F04CFE0546616807F042FCB2
:104F400060605146504607F043FE0190069907F015
:104F50003FFE834607F00AFC074600228F4B06F00F
:104F60001BFFCDE90401A06807F000FCCDE90201B8
:104F7000DDE9042306F054FE054606F01FFEA0609E
:104F80000BE0B9F1010F08D15046069907F020FE59
:104F90000546A16807F016FCA0600BB0BDE8F08FD5
:104FA0002DE9FF470020019002900390FEF78DF954
:104FB00006467B48006848B179490968701A07F0CD
:104FC000BFFD8046774907F071FC00E000200746EE
:104FD000734806607448007808B9BDE8FF877348D5
:104FE000407800B9F9E77248007878B171484169B2
:104FF000002007F0ADFF80466F480168404607F08B
:10500000A7FF6E4908600020694908706C48007865
:10501000002854D06B4A1168644A106D07F098FF5D
:1050200062490865674A5168604A506D07F090FF11
:105030005E494865634A91685C4A906D07F088FF55
:105040005A498865002423E000205F4941F8240084
:10505000002519E005EB4503544A743202EB830244
:1050600052F82400514A503252F8251007F0B0FD92
:105070008046554850F82410404607F0A3FB52499B
:1050800041F82400681CC5B2032DE3DB601CC4B2E8
:10509000032CD9DB4C48806880F000404A49886086
:1050A00088684A4907F08EFB80464348816840463D
:1050B00007F04EFF46498860002041490870454886
:1050C00001683E48006807F083FD81464148016859
:1050D000484607F07DFD8046039907F0A7FE039040
:1050E00000242EE04FF00008002513E004EB4403F9
:1050F0002E4A743202EB830252F8250001AA52F8BC
:10510000251007F065FD8146414607F05BFB8046B0
:10511000681CC5B2032DE9DB2F480168404607F043
:1051200057FD8246394607F053FD8146254850F821
:105130002410484607F046FB224941F82400601C31
:10514000C4B2032CCEDB1F48806880F000401D49AC
:10515000886019493846FFF7A7FE1E4800680023FB
:10516000154A3946009015480068FFF7C7FE1B48EE
:1051700000681749009002230F4A88683946FFF7F4
:10518000BDFE0D480068164988600B4840684861BC
:1051900009488068086200BF1FE70000000008405F
:1051A000A401002000247449C0000020B00A00209F
:1051B000B8000020FC090020AC0B0020A00100205A
:1051C00028000020C40B0020940100200AE81C41A4
:1051D000B80B002088010020900100208C010020E5
:1051E000880B00202DE9FE4F82460C4600200290DD
:1051F000814601902146504607F058FB02900298E4
:1052000007F0B4FA07463A460B46FE48FE4906F058
:10521000C3FD054606F0D2FC834606F0FDFB814641
:105220004946484607F0D4FC8046F84806F030FA74
:1052300083464FF0804107F0CBFC0746494607F014
:10524000C7FC06464FF07E5107F0BCFA05464146C2
:1052500007F0B8FA0190EE4804600021006807F0FA
:1052600083FD49D24946484607F0B2FC05460199FC
:1052700007F01CFBE7490860084601684FF08040D2
:1052800007F0A6FCE4490860E2480068E3490860CA
:105290004946484607F09CFC07464FF07E5107F010
:1052A00057FE06464FF0804107F092FC05460199F3
:1052B00007F0FCFADA4908604946484607F088FCDE
:1052C0000090D24806F0E4F983464FF0804107F0A1
:1052D0007FFC8046494607F07BFC07464FF07E5135
:1052E00007F0A4FD0646009907F06CFA05460199FF
:1052F00007F0DCFACB490860BDE8FE8F2DE9F047E6
:105300000446002500260021C148006807F02CFC57
:1053100002D82046BDE8F087C2480168C24800684C
:1053200007F056FC8046BE480168C048006807F098
:105330004FFC8146214607F079FD0746414607F0BC
:1053400007FE0546284605F0F1FC18B9284605F089
:10535000E3FC00B12546B1480168B348006807F096
:1053600037FC8046AC480168B048006807F030FC64
:105370008146A8480168284607F02AFC824649462B
:1053800007F020FA0746414607F01CFA0646A748F0
:105390000068A5490860A54805603046BAE72DE9D0
:1053A000FE4F82460C460020029081460190214625
:1053B000504607F07BFA0290029807F0D7F90746AB
:1053C0003A460B468F48904906F0E6FC054606F043
:1053D000F5FB834606F020FB81464946484607F028
:1053E000F7FB8046894806F053F983464FF0804129
:1053F00007F0EEFB0746494607F0EAFB06464FF08A
:105400007E5107F0DFF90546414607F0DBF90190D0
:10541000874804600021006807F0A6FC49D249468D
:10542000484607F0D5FB0546019907F03FFA814948
:105430000860084601684FF0804007F0C9FB7E49CC
:1054400008607C4800687D4908604946484607F086
:10545000BFFB07464FF07E5107F07AFD06464FF03E
:10546000804107F0B5FB0546019907F01FFA744922
:1054700008604946484607F0ABFB0090634806F0D9
:1054800007F983464FF0804107F0A2FB804649466A
:1054900007F09EFB07464FF07E5107F0C7FC06461B
:1054A000009907F08FF90546019907F0FFF9654962
:1054B0000860BDE8FE8F2DE9F04704460025002670
:1054C00000215B48006807F04FFB02D82046BDE88A
:1054D000F0875C4801685C48006807F079FB80460B
:1054E000574801685948006807F072FB8146214619
:1054F00007F09CFC0746414607F02AFD0546284672
:1055000005F014FC18B9284605F006FC00B1254644
:105510004A4801684C48006807F05AFB80464648F4
:1055200001684A48006807F053FB8146414801681A
:10553000284607F04DFB8246494607F043F90746E7
:10554000414607F03FF90646404800683E4908607A
:105550003E4805603046BAE72DE9FE4F82460C46CC
:1055600000200290814601902146504607F09EF9A6
:105570000290029807F0FAF807463A460B4621488F
:10558000214906F009FC054606F018FB834606F0A3
:1055900043FA81464946484607F01AFB80461B48B5
:1055A00006F076F883464FF0804107F011FB07467E
:1055B000494607F00DFB06464FF07E5107F002F911
:1055C0000546414607F0FEF801902148046000219D
:1055D000006807F0C9FB78D24946484607F0F8FA58
:1055E0000546019907F062F91A4908600846016802
:1055F0004FF0804007F0ECFA174908601548006842
:1056000016492DE04AD8124DFB210940DA0F493FD7
:10561000A8010020B4010020B8010020BC01002036
:10562000AC010020B0010020C4010020C001002016
:10563000C8010020D4010020D8010020DC01002096
:10564000CC010020D0010020E4010020E001002076
:10565000E8010020F4010020F8010020FC010020F6
:1056600008604946484607F0B3FA07464FF07E51B6
:1056700007F06EFC06464FF0804107F0A9FA054698
:10568000019907F013F9FE4908604946484607F0BA
:105690009FFA0090FB4805F0FBFF83464FF08041E6
:1056A00007F096FA8046494607F092FA07464FF00F
:1056B0007E5107F0BBFB0646009907F083F80546CC
:1056C000019907F0F3F8F0490860BDE8FE8F2DE975
:1056D000F0470446002500260021EC48006807F04A
:1056E00043FA02D82046BDE8F087E7480168E84859
:1056F000006807F06DFA8046E1480168E5480068F7
:1057000007F066FA8146214607F090FB07464146BE
:1057100007F01EFC0546284605F008FB18B9284688
:1057200005F0FAFA00B12546DB480168D848006860
:1057300007F04EFA8046D9480168D648006807F05D
:1057400047FA8146D6480168284607F041FA824662
:10575000494607F037F80746414607F033F8064652
:10576000CC480068CA490860CA4805603046BAE7B4
:105770002DE9FE4F82460C460020029081460190A2
:105780002146504607F092F80290029806F0EEFF8C
:1057900007463A460B46C348C34906F0FDFA05469C
:1057A00006F00CFA834606F037F98146494648462A
:1057B00007F00EFA8046B34805F06AFF83464FF0C3
:1057C000804107F005FA0746494607F001FA064608
:1057D0004FF07E5106F0F6FF0546414606F0F2FF17
:1057E0000190B24804600021006807F0BDFA49D278
:1057F0004946484607F0ECF90546019907F056F886
:10580000AB490860084601684FF0804007F0E0F9B6
:10581000A8490860A6480068A74908604946484664
:1058200007F0D6F907464FF07E5107F091FB064688
:105830004FF0804107F0CCF90546019907F036F8A2
:105840009E4908604946484607F0C2F900908D48D5
:1058500005F01EFF83464FF0804107F0B9F98046FE
:10586000494607F0B5F907464FF07E5107F0DEFADA
:105870000646009906F0A6FF0546019907F016F8BE
:105880008F490860BDE8FE8F2DE9F04704460025EA
:10589000002600218548006807F066F902D82046F6
:1058A000BDE8F087864801688648006807F090F9EF
:1058B0008046824801688448006807F089F981467B
:1058C000214607F0B3FA0746414607F041FB05467B
:1058D000284605F02BFA18B9284605F01DFA00B144
:1058E0002546754801687748006807F071F98046D9
:1058F000704801687448006807F06AF981466C488E
:105900000168284607F064F98246494606F05AFFC6
:105910000746414606F056FF06466B48006869494F
:105920000860694805603046BAE72DE9FE4F8246B7
:105930000C4600200290814601902146504606F018
:10594000B5FF0290029806F011FF07463A460B4653
:105950005448554906F020FA054606F02FF98346CB
:1059600006F05AF881464946484607F031F9804624
:10597000444805F08DFE83464FF0804107F028F93A
:105980000746494607F024F906464FF07E5106F0D7
:1059900019FF0546414606F015FF01904B4804608B
:1059A0000021006807F0E0F949D24946484607F06F
:1059B0000FF90546019906F079FF45490860084648
:1059C00001684FF0804007F003F942490860404801
:1059D0000068414908604946484607F0F9F807461B
:1059E0004FF07E5107F0B4FA06464FF0804107F0C1
:1059F000EFF80546019906F059FF38490860494615
:105A0000484607F0E5F800901E4805F041FE834641
:105A10004FF0804107F0DCF88046494607F0D8F89F
:105A200007464FF07E5107F001FA0646009906F04E
:105A3000C9FE0546019906F039FF29490860BDE80D
:105A4000FE8F2DE9F04704460025002600211F485F
:105A5000006807F089F802D82046BDE8F0872048A2
:105A600001682048006807F0B3F880461B480168C9
:105A70001D48006807F0ACF88146214636E000007A
:105A8000EC010020DA0F493FF0010020E80100207E
:105A90000402002000020020FC010020F801002088
:105AA000F40100204AD8124DFB21094008020020D1
:105AB00014020020180200201C0200200C0200200A
:105AC00010020020240200202002002028020020D2
:105AD00034020020380200203C0200202C0200206A
